:020000040800F2
:1000000000000220E91D0008391E0008391E000802
:10001000391E0008391E0008391E000800000000C3
:10002000000000000000000000000000391E000871
:10003000391E000800000000391E0008BB1100082E
:10004000391E0008391E0008391E0008391E000834
:10005000391E0008391E0008DD1B0008E71B0008D8
:10006000F11B0008FB1B0008051C0008391E0008D6
:10007000391E0008391E0008391E0008391E000804
:10008000391E0008391E0008391E00080000000053
:100090000000000000000000000000000F1C00082D
:1000A000A921000825210008BD21000845210008DC
:1000B000592100086D21000881210008391E00081F
:1000C000391E0008391E0008391E0008391E0008B4
:1000D000391E0008651A00087D1A0008000000009B
:1000E000251C0008F5140008391E00080000000057
:1000F000000000000000000000000000391E0008A1
:1001000000000000391E000895210008391E000873
:1001100000000000000000000000000000000000DF
:10012000391E0008391E0008391E0008391E000853
:10013000391E000800000000000000000000000060
:10014000000000000000000000000000391E000850
:10015000391E0008391E0008391E0008951A0008CB
:10016000391E0008391E00080000000000000000D1
:10017000000000000000000000000000000000007F
:1001800000000000391E0008000000000000000010
:08019000391E0008391E0008A9
:1001980053B94AB9002908BF00281CBF4FF0FF31E6
:1001A8004FF0FF3000F00CB8ADF1080C6DE904CE4B
:1001B80002F028FBDDF804E0DDE9022304B0704713
:1001C800704700BF10B5054C237833B9044B13B101
:1001D8000448AFF300800123237010BD8C00002079
:1001E800000000006C2B000808B5034B1BB1034945
:1001F8000348AFF3008008BD000000009000002015
:100208006C2B000808B501211F2001F013FE08BD62
:1002180008B501211F2001F075FE4FF47A7001F036
:10022800A3FE00211F2001F06DFE4FF47A7001F04B
:100238009BFE08BD03460D4A10680344EFF308828D
:10024800934207D80A4A0B49521A934208D2074ADE
:1002580013607047084B0C221A604FF0FF3070474C
:10026800054B0C221A604FF0FF3070470000002049
:10027800000002200004000060030020FEE70000E8
:10028800024B16221A604FF0FF30704760030020BF
:10029800012070477047000010B504460E4B1878CF
:1002A8004FF47A73B3FBF0F30C4A1068B0FBF3F029
:1002B80000F0AAF868B90F2C01D901200AE0002241
:1002C80021464FF0FF3000F04BF8054B1C60002032
:1002D80000E0012010BD00BF040000202400002021
:1002E8000800002008B50B4B1A6842F400721A6027
:1002F8001A6842F480621A601A6842F480721A60BE
:10030800032000F01BF80020FFF7C6FFFFF7C2FF2D
:10031800002008BD003C0240034A1168034B1B78CB
:100328000B441360704700BF5C03002004000020EA
:10033800014B1868704700BF5C030020074AD36868
:1003480023F4E0631B041B0C000200F4E060034389
:1003580043F0BF6343F40033D360704700ED00E01F
:1003680030B4174BDB68C3F30223C3F10704042C32
:1003780028BF04241D1D062D18D9033B4FF0FF3557
:1003880005FA04F421EA0401994005FA03F322EA84
:100398000303194300280BDB0901C9B200F16040CF
:1003A80000F5614080F8001330BC70470023E5E792
:1003B80000F00F000901C9B2024B1954F4E700BF5D
:1003C80000ED00E014ED00E0002807DB00F01F025C
:1003D800400901239340024A42F82030704700BF89
:1003E80000E100E000280CDB00F01F0240090123B7
:1003F80093402030034A42F82030BFF34F8FBFF3B9
:100408006F8F704700E100E00138B0F1807F0AD2B9
:10041800064B5860064AF02182F8231000209860A5
:1004280007221A6070470120704700BF10E000E003
:1004380000ED00E0002808DB00F01F02400901235E
:1004480093406030014A42F82030704700E100E0F4
:10045800704708B5FFF7FCFF08BD90F83530DBB2F0
:10046800022B03D08023436501207047052380F8C1
:1004780035300268136823F00103136000207047C9
:1004880008B5054B5B69034200D108BD024B5861B2
:1004980001F0D8FBF9E700BF003C0140002800F05C
:1004A800D98170B582B00446036813F0010F3BD0C0
:1004B800A64B9B6803F00C03042B2CD0A34B9B6822
:1004C80003F00C03082B21D06368B3F5803F4FD0AD
:1004D800B3F5A02F52D09D4B1A6822F480321A60CF
:1004E8001A6822F480221A606368002B50D0FFF744
:1004F8001FFF0546954B1B6813F4003F14D1FFF707
:1005080017FF401B6428F5D90320AAE18F4B5B68CD
:1005180013F4800FD8D08D4B1B6813F4003F03D021
:100528006368002B00F09881236813F0020F54D001
:10053800864B9B6813F00C0F3ED0844B9B6803F0EE
:100548000C03082B33D0E368002B67D0804B0122C3
:100558001A60FFF7EDFE05467C4B1B6813F0020F8F
:1005680053D1FFF7E5FE401B0228F5D9032078E1B7
:10057800764A136843F480331360B5E7734B1A68FF
:1005880042F480221A601A6842F480321A60ABE79B
:10059800FFF7CEFE05466D4B1B6813F4003FC3D032
:1005A800FFF7C6FE401B6428F5D9032059E1674BC5
:1005B8005B6813F4800FC6D1644B1B6813F0020FFD
:1005C80003D0E368012B40F04981604A136823F0A7
:1005D800F803216943EAC1031360236813F0080F85
:1005E80040D0636963B35B4B01221A60FFF7A0FE3A
:1005F8000546564B5B6F13F0020F33D1FFF798FE99
:10060800401B0228F5D903202BE1504A136823F038
:10061800F803216943EAC1031360DEE74C4B00226B
:100628001A60FFF785FE0546484B1B6813F0020F5A
:10063800D3D0FFF77DFE401B0228F5D9032010E137
:10064800444B00221A60FFF773FE05463F4B5B6F71
:1006580013F0020F06D0FFF76BFE401B0228F5D9F6
:100668000320FEE0236813F0040F78D0374B1B6C8F
:1006780013F0805F0DD100230193344B1A6C42F0C4
:1006880080521A641B6C03F080530193019B01256F
:1006980000E00025304B1B6813F4807F21D0A3684D
:1006A800012B32D0052B36D0284B1A6F22F00102CD
:1006B8001A671A6F22F004021A67A368002B34D055
:1006C800FFF736FE0646214B1B6F13F0020F45D18C
:1006D800FFF72EFE801B41F288339842F3D903209E
:1006E800BFE01D4A136843F480731360FFF720FED0
:1006F8000646194B1B6813F4807FD0D1FFF718FE0C
:10070800801B0228F5D90320ABE0104A136F43F091
:1007180001031367D1E70D4B1A6F42F004021A6701
:100728001A6F42F001021A67C7E7FFF701FE064693
:10073800064B1B6F13F0020F10D0FFF7F9FD801B5B
:1007480041F288339842F3D903208AE00038024006
:1007580000004742800E474200700040E5B9A36997
:10076800002B7DD0464A926802F00C02082A51D02C
:10077800022B17D0434B00221A60FFF7D9FD04461D
:100788003F4B1B6813F0007F42D0FFF7D1FD001BE1
:100798000228F5D9032064E0394A136C23F080530A
:1007A8001364DCE7374B00221A60FFF7C1FD0546EA
:1007B800334B1B6813F0007F06D0FFF7B9FD401BD1
:1007C8000228F5D903204CE0E369226A1343626AE0
:1007D80043EA8213A26A5208013A43EA0243E26AF0
:1007E80043EA0263264A5360264B01221A60FFF748
:1007F8009FFD0446224B1B6813F0007F06D1FFF7CC
:1008080097FD001B0228F5D903202AE0002028E0E4
:10081800002026E0012B26D0194B9B6803F48001A9
:10082800E269914221D103F03F02216A8A421ED136
:10083800616A47F6C0721A408A421AD103F44032FC
:10084800A16A8A4217D103F07063E26A934214D115
:10085800002006E001207047012002E0012000E0AE
:10086800002002B070BD0120FBE70120F9E701205C
:10087800F7E70120F5E70120F3E70120F1E700BFE2
:100888000038024060004742F8B5244B9B6803F0EB
:100898000C03042B3DD0082B3DD1204B5A6802F0A5
:1008A8003F025B6813F4800F12D01C4B5968C1F3E8
:1008B800881100231A48A1FB0001FFF769FC174BB8
:1008C8005B68C3F3014301335B00B0FBF3F023E043
:1008D800124B5B68C3F388135C010025E41A65F1C9
:1008E8000005AE0146EA9466A701381B66EB0501D0
:1008F800CC0044EA5074C500E81844F100018B02AA
:1009080043EA90538402204619460023FFF740FC2F
:10091800D5E7034800E00348F8BD00BF00380240AF
:1009280040787D010024F400002800F09B8070B519
:100938000D4604464F4B1B6803F00F038B4208D249
:10094800CBB24C4A1370136803F00F038B4240F08C
:100958008B80236813F0020F17D013F0040F04D014
:10096800454A936843F4E0539360236813F0080FF3
:1009780004D0414A936843F4604393603E4A9368C5
:1009880023F0F003A1680B439360236813F0010F71
:1009980032D06368012B21D09A1E012A25D9364A04
:1009A800126812F0020F61D033498A6822F00302FC
:1009B80013438B60FFF7BCFC06462F4B9B6803F084
:1009C8000C036268B3EB820F16D0FFF7B1FC801BF3
:1009D80041F288339842F0D9032042E0264A12684F
:1009E80012F4003FE0D101203BE0234A126812F0E4
:1009F800007FD9D1012034E01E4B1B6803F00F03A0
:100A0800AB4207D9EAB21B4B1A701B6803F00F03FD
:100A1800AB422DD1236813F0040F06D0164A936811
:100A280023F4E053E1680B439360236813F0080F45
:100A380007D0114A936823F46043216943EAC1034C
:100A48009360FFF721FF0C4B9B68C3F303130B4A1A
:100A5800D35CD8400A4B18600A4B1868FFF71CFC97
:100A6800002070BD012070470120FAE70120F8E757
:100A78000120F6E7003C0240003802402C2C000818
:100A8800240000200800002010B5044603689A6876
:100A980012F4805F03D0DB6813F4807F0FD12368E2
:100AA8009A6812F4005F03D0DB6813F4007F0FD15B
:100AB8000C4B4FF400325A610123637710BD00F0EC
:100AC80009FD2268D368DBB263F4C073D360E6E73C
:100AD800204600F009F82268D368DBB263F420737B
:100AE800D360E5E7003C014070477047704710B598
:100AF800044603681A6912F0020F11D0DA6812F07E
:100B0800020F0DD06FF002021A6101230377036808
:100B18009B6913F0030F70D001F098FB0023237733
:100B280023681A6912F0040F12D0DA6812F0040F61
:100B38000ED06FF004021A610223237723689B69A1
:100B480013F4407F5FD0204601F080FB0023237719
:100B580023681A6912F0080F12D0DA6812F0080F29
:100B68000ED06FF008021A61042323772368DB692B
:100B780013F0030F4ED0204601F068FB00232377C3
:100B880023681A6912F0100F12D0DA6812F0100FE9
:100B98000ED06FF010021A61082323772368DB69EF
:100BA80013F4407F3DD0204601F050FB002323770B
:100BB80023681A6912F0010F03D0DA6812F0010FE6
:100BC80036D123681A6912F0800F03D0DA6812F060
:100BD800800F34D123681A6912F0400F03D0DA6805
:100BE80012F0400F32D123681A6912F0200F03D097
:100BF800DA6812F0200F30D110BD01F02BFB20462F
:100C0800FFF773FF8AE7204601F024FB2046FFF731
:100C18006CFF9BE7204601F01DFB2046FFF765FFB0
:100C2800ACE7204601F016FB2046FFF75EFFBDE764
:100C38006FF001021A61204601F0DCFAC1E76FF09B
:100C480080021A61204600F078F8C3E76FF040028E
:100C58001A612046FFF74AFFC5E76FF020021A61C4
:100C6800204600F069F8C7E70368254A90420ED08D
:100C7800B0F1804F0BD0A2F57C42904207D002F52C
:100C88008062904203D002F58062904203D123F043
:100C980070034A6813431A4A90421AD0B0F1804F41
:100CA80017D0A2F57C42904213D002F580629042A0
:100CB8000FD002F5806290420BD002F59A32904232
:100CC80007D002F58062904203D002F5806290421C
:100CD80003D123F44073CA68134323F080034A699D
:100CE800134303608B68C3620B688362044B9842AA
:100CF80002D00123436170470B690363F9E700BF22
:100D080000000140B0B110B5044690F83D3063B121
:100D1800022384F83D30214651F8040BFFF7A4FF65
:100D2800012384F83D30002010BD80F83C3000F0ED
:100D380095FDEDE701207047704770470268D3685A
:100D480023F49073D3600268536923F0010353615D
:100D5800202380F83A30704790F83930DBB2212BE5
:100D680001D0022070478368B3F5805F17D0036A0B
:100D78005A1C02621A7803685A60C38C9BB2013B02
:100D88009BB2C3844BB90268D36823F08003D36055
:100D98000268D36843F04003D36000207047036AB9
:100DA8001B880268C3F30803536003691BB9036A0D
:100DB80002330362E1E7036A01330362DDE790F877
:100DC8003930DBB2202B16D1B9B1C2B190F8383026
:100DD800012B16D001628284C2840023C3632122BE
:100DE80080F8392080F838300168CA6842F08002FB
:100DF800CA601846704702207047012070470120DA
:100E080070470220704790F83A30DBB2202B20D18F
:100E180009B312B390F83830012B20D08162828553
:100E2800C2850023C363222280F83A2080F8383034
:100E38000168CA6842F48072CA6001684A6942F06F
:100E480001024A610168CA6842F02002CA60184675
:100E58007047022070470120704701207047022028
:100E6800704708B50168CA6822F04002CA602022AB
:100E780080F8392000F097FD002008BD08B590F8EB
:100E88003A30DBB2222B46D18368B3F5805F0FD0AE
:100E980003690BBB03685A68836A591C81621A701C
:100EA800C38D9BB2013B9BB2C385F3B1002008BD43
:100EB800826A036943B903685B68C3F30803138054
:100EC800836A02338362EBE703685B68DBB21380F3
:100ED800836A01338362E3E703685B68826A511CB3
:100EE800816203F07F031370DAE70268D36823F0A6
:100EF8002003D3600268D36823F48073D360026848
:100F0800536923F001035361202380F83A3000F03D
:100F180043FD0020CBE70220C9E7000010B50446D6
:100F280002681368D168526913F00F0005D113F0F5
:100F3800200F02D011F0200F13D128B112F00102B6
:100F480013D111F4907F10D113F0800F02D011F05B
:100F5800800F6CD113F0400F02D011F0400F6AD10E
:100F680010BD2046FFF78AFFFAE713F0010F06D0FD
:100F780011F4807F03D0E06B40F00100E06313F0D0
:100F8800040F04D01AB1E06B40F00200E06313F0E4
:100F9800020F04D01AB1E06B40F00400E06313F0D4
:100FA800080F07D011F0200F00D11AB1E26B42F000
:100FB8000802E263E26B002AD2D013F0200F02D0BD
:100FC80011F0200F21D123685B6903F04003E26B25
:100FD80012F0080F00D123B32046FFF7AFFE2368B5
:100FE8005A6912F0400F18D05A6922F040025A612B
:100FF800636B73B1124A1A65606BFFF72EFA00280B
:10100800AED0606B036D9847AAE72046FFF736FF1E
:10101800D9E7204600F0DDFCA2E7204600F0D9FC25
:101028009EE7204600F0D5FC0023E36398E72046BE
:10103800FFF792FE94E72046FFF713FF90E700BF03
:101048004D10000808B5806B0023C385C38400F0E9
:10105800C0FC08BD90F83830012B14D0012380F86B
:101068003830242380F839300268D36823F00C0321
:1010780043F00803D360202380F83930002380F838
:101088003830184670470220704790F83830012BE6
:1010980014D0012380F83830242380F839300268CE
:1010A800D36823F00C0343F00403D360202380F8B3
:1010B8003930002380F838301846704702207047CE
:1010C80090F8393090F83A001843704786B00528F0
:1010D80059D8DFE800F00312202E3C4A0023009381
:1010E8002A4B1A6B42F001021A631B6B03F00103CF
:1010F8000093009B264806B0704700230193234BBA
:101108001A6B42F002021A631B6B03F0020301938D
:10111800019B2048EFE7002302931C4B1A6B42F017
:1011280004021A631B6B03F004030293029B1A4820
:10113800E1E700230393154B1A6B42F008021A6388
:101148001B6B03F008030393039B1448D3E70023A6
:1011580004930E4B1A6B42F010021A631B6B03F0D8
:1011680010030493049B0E48C5E700230593074B1F
:101178001A6B42F080021A631B6B03F0800305931D
:10118800059B0848B7E70020B5E700BF00380240D4
:10119800000002400004024000080240000C024027
:1011A80000100240001C024008B5FFF7C1F808BD56
:1011B800704708B5FFF7B0F8FFF74BF9FFF7F8FFEE
:1011C80008BD00000C4BDB6813F0807F04D10A4A8D
:1011D800D36843F08073D360084B00225A601A68C2
:1011E80042F001021A6000BF00BF00BF5868B0FAA1
:1011F80080F04009704700BFF0ED00E0001000E00B
:1012080008B5FFF7DFFFFFF76DF800F0D3FD08BD65
:10121800B0F1FF3F08D0B1F90030B3F1FF3F05D07E
:10122800834205D00C31F6E7002070470020704754
:10123800012070472DE9F84380460D4601F0070765
:10124800C1F30629C0F3031600F00F028A4B53F8C6
:101258002240B0F1FF3F20D03046FFF737FF064667
:10126800836894FAA4F2EAB1B2FA82F25200032136
:1012780001FA02F223EA020294FAA4F3A3B1B3FA40
:1012880083F35B00032101FA03F31343B3608F4236
:101298004ED8DFE807F053530B534821774800F046
:1012A8002DF9D9E72022E1E72023EAE708F00F0229
:1012B800714B53F8223018F0080F1DD0716A1B0AC1
:1012C80093FAA3F2A2B1B2FA82F292000F2000FAC6
:1012D80002F221EA020293FAA3F35BB1B3FA83F3B1
:1012E8009B0009FA03F942EA09027262394626E0CC
:1012F8002022EAE72023F3E7316A93FAA3F29AB1AE
:10130800B2FA82F292000F2000FA02F221EA0202F7
:1013180093FAA3F353B1B3FA83F39B0009FA03F9E1
:1013280042EA09023262E1E72022EBE72023F4E7F0
:101338008D21524800F0E2F8002100E03946336878
:1013480094FAA4F25AB3B2FA82F25200032000FAD5
:1013580002F223EA020294FAA4F313B3B3FA83F372
:101368005B0001FA03F313433360013F012F1AD9DD
:10137800C5F30115012D44D0022D5FD0F26894FA0F
:10138800A4F3002B76D0B3FA83F35B00032101FAB0
:1013980003F322EA030394FAA4F4F36048E020225A
:1013A800D3E72023DCE715F0080F19D0736894FA07
:1013B800A4F28AB1B2FA82F2012101FA02F223EA16
:1013C800020394FAA4F24AB1B2FA82F2012101FAB4
:1013D80002F213437360CBE72022EDE72022F5E702
:1013E800726894FAA4F353B1B3FA83F3012101FAB2
:1013F80003F322EA030394FAA4F27360B8E7202304
:10140800F4E7F26894FAA4F3A3B1B3FA83F35B00A8
:10141800032101FA03F322EA030394FAA4F45CB16A
:10142800B4FA84F46400012202FA04F41C43F46060
:10143800BDE8F8832023EAE72024F3E7F26894FA6A
:10144800A4F39BB1B3FA83F35B00032101FA03F31E
:1014580022EA030394FAA4F454B1B4FA84F46400BD
:10146800022202FA04F41C43F460E1E72023EBE7CC
:101478002024F4E7202388E7EC2B0008842B0008BD
:10148800B1F90030B3F1FF3F05D0834201D00C31F0
:10149800F6E74868704700207047B0F1FF3F03D077
:1014A80008B5FFF7EDFF08BD002070474B6833B162
:1014B800834201D00C31F9E7B1F9000070474FF0D1
:1014C800FF30704718B108B5FFF7F0FF08BD4FF0BF
:1014D800FF30704708B5034B1B6813B1024A106808
:1014E800984708BDA8000020CC00002008B5024895
:1014F800FFF7CAFA08BD00BFAC000020FEE70000F5
:101508000F49D1F8883043F47003C1F888300D4B87
:101518001A6842F001021A60002098601A6822F0E6
:10152800847222F480321A60074A5A601A6822F4D8
:1015380080221A60D8604FF000638B60704700BF4C
:1015480000ED00E0003802401030002404387047F5
:1015580088B00268444B9A421DD00368B3F1804FAB
:1015680026D00268414B9A422FD00268404B9A42DB
:1015780038D002683F4B9A4241D002683E4B9A42AB
:101588004AD002683D4B9A4253D002683C4B9A427B
:101598005CD008B07047002300933A4B5A6C42F075
:1015A80001025A645B6C03F001030093009BD4E7CB
:1015B80000230193334B1A6C42F001021A641B6C2E
:1015C80003F001030193019BCBE7002302932D4B0A
:1015D8001A6C42F002021A641B6C03F002030293B5
:1015E800029BC2E700230393264B1A6C42F00402C5
:1015F8001A641B6C03F004030393039BB9E70023ED
:101608000493204B1A6C42F008021A641B6C03F016
:1016180008030493049BB0E700230593194B5A6C05
:1016280042F480325A645B6C03F480330593059B63
:10163800A7E700230693134B5A6C42F400325A640E
:101648005B6C03F400330693069B9EE70023079325
:101658000C4B5A6C42F480225A645B6C03F480236E
:101668000793079B95E700BF000001400004004076
:1016780000080040000C00400040014000440140C8
:1016880000480140003802400268284B9A421CD0AA
:101698000368B3F1804F1ED00268254B9A4220D0D0
:1016A8000268244B9A4222D00268234B9A4224D0E3
:1016B8000268224B9A4226D00268214B9A4228D0CF
:1016C8000268204B9A422AD070471F4A536C23F075
:1016D80001035364DCE71C4A136C23F00103136411
:1016E800DAE7194A136C23F002031364D8E7164AA1
:1016F800136C23F004031364D6E7134A136C23F026
:1017080008031364D4E7104A536C23F480335364FA
:10171800D2E70D4A536C23F400335364D0E70A4AE6
:10172800536C23F480235364CEE700BF00000140CC
:101738000004004000080040000C00400040014048
:10174800004401400048014000380240B0F1FF3F2A
:101758002DD008B51B4B98422CD00ED8A3F50063AA
:10176800984229D003F58063984201D11E2016E0E3
:10177800B0F1804F14D11C2011E0134B98421DD0BA
:1017880004D9124B98420BD11A2008E0A3F58843DC
:10179800984215D003F58043984201D1182008BD1E
:1017A80001460B48FFF7AAFE6FF00D00F7E76FF050
:1017B8000D0070473220F2E71D20F0E71920EEE710
:1017C8001920ECE7000C00400044014000480140AB
:1017D8003C2C0008B0F1FF3F2DD008B51B4B9842B8
:1017E8002CD012D8A3F57843984229D004D9184BA5
:1017F800984219D1322007E0B0F1804F22D0A3F5EA
:101808008063984210D11D2008BD124B98421BD00E
:1018180003F58063984201D11A20F5E7A3F5006328
:10182800984201D11820EFE701460B48FFF766FE02
:101838006FF00D00E8E76FF00D0070471B20E3E73D
:101848001E20E1E71C20DFE71920DDE7000001404A
:10185800000C0040004401403C2C000870B50446D0
:10186800FFF774FE05462046FFF772FE2068FFF773
:101878006DFFAA6C696CFEF773FD2068FFF766FFC1
:10188800FEF7A2FD2068FFF7A5FF06462068FFF7D0
:101898005DFF864200D170BD2068FFF79BFFAA6CF0
:1018A800696CFEF75DFD2068FFF794FFFEF78CFD7D
:1018B800F1E704387047000008B590F85120064B4E
:1018C80053F82200FFF7FCFB00F02200222814BF87
:1018D8000020012008BD00BFD000002008B590F806
:1018E8005120064B53F82200FFF7EAFB00F02100D5
:1018F800212814BF0020012008BD00BFD00000200F
:10190800F0B110B50446816490F95000FEF76AFD05
:1019180094F85100A36DB4F86210012213FA81F112
:10192800084B53F82000FFF74AFA0022012194F9E6
:101938005000FEF715FD94F95000FEF745FD10BD67
:10194800704700BFD000002070B108B5B0F94E2034
:10195800B2F1FF3F00D008BD90F85120034B53F877
:101968002200FFF777FBF6E7704700BFD0000020A2
:1019780070B108B5B0F94E20B2F1FF3F00D008BDF4
:1019880090F85120034B53F82200FFF77EFBF6E74F
:10199800704700BFD000002008B5FFF78AFF08B1E4
:1019A800426C904708BD38B50446FFF782FF28B15E
:1019B8000546836C9847B0F1FF3F00D138BDAB6D49
:1019C800B5F86210012213FA81F12046FFF7F7F902
:1019D800F4E730B585B0044603681A6812F0010FC1
:1019E80010D0002200921A6800925B680093009B56
:1019F8002046FFF75EFF054610B1FFF75DFF28B3ED
:101A080005B030BD1A6812F0020F07D0002201920B
:101A18001A6801925B680193019BE9E71A6812F062
:101A2800040F07D0002202921A6802925B680293A0
:101A3800029BDDE71A6812F0080FD9D00022039242
:101A48001A6803925B680393039BD1E7012205F1AF
:101A580052012046FFF7D7F9D2E7000008B5252044
:101A6800FEF7E8FC024B1868FFF758FA08BD00BFFC
:101A7800D000002008B52620FEF7DCFC024B586891
:101A8800FFF74CFA08BD00BFD000002008B547207A
:101A9800FEF7D0FC024B9868FFF740FA08BD00BF7C
:101AA800D000002070B505461349FFF7F6FC00F09A
:101AB8006BFA0446114B53F8203063B10F4B53F8BF
:101AC80024301C6834B1204600F098FAA82120463A
:101AD80000F0D9FB70BD08492846FFF7DEFC064632
:101AE800A82000F0CCFB0546314600F0ABFA034BCA
:101AF80053F824301D60E1E7542C00081C02002034
:101B080003460020012B03D05B080130C0B2F9E77F
:101B18007047000010B5012805D018B94FF6FF73BB
:101B2800994246D010BD4FF6FF739942F5D1274B25
:101B380006221A700022DA6007241C751A6208242B
:101B480083F828405A63092483F83C409A640A249D
:101B580083F85040DA65172483F864401A6783F8DD
:101B68007840C3F8842083F88C40C3F8982083F821
:101B7800A040C3F8AC2083F8B440C3F8C0202824A0
:101B880083F8C840C3F8D42083F8DC40C3F8E820C1
:101B980083F8F040C3F8FC2083F80441C3F810210F
:101BA80083F81841C3F8242183F82C41C3F838215D
:101BB800B3E7074C054B9C42B4D0143CE368002BB8
:101BC800F8D0201D032201469847F3E7DC000020E7
:101BD8001C02002008B50120FEF752FC08BD08B51C
:101BE8000220FEF74DFC08BD08B50420FEF748FCAE
:101BF80008BD08B50820FEF743FC08BD08B510204D
:101C0800FEF73EFC08BD10B52024B4F5007F04D8CB
:101C1800A0B2FEF735FC6400F7E710BD10B54FF42D
:101C28008064B4F5004F04D8A0B2FEF729FC640024
:101C3800F7E710BD08B5836813B1C368984708BDB6
:101C480000F042FF08B5FFF75BFF00EB8003044894
:101C580000EB8300043083680BB1FFF7EBFF08BD8E
:101C6800DC00002008B54FF6FF710120FFF752FF96
:101C780008BD08B54FF6FF710020FFF74BFF08BD00
:101C880010B594B000210191234B1A6C42F0805298
:101C98001A641B6C03F080530193019B02911F4A45
:101CA800136823F4404343F400431360136803F4B8
:101CB80040430293029B01230893B8B94FF4803341
:101CC800099302230E934FF480020F921922109267
:101CD800C022119212930423139308A8FEF7DEFB87
:101CE800044638B10024204614B010BD4FF4A02398
:101CF8000993E6E70F230393022304930023059334
:101D08004FF4805206920793032103A8FEF70CFEB6
:101D18000028E8D10124E6E70038024000700040BE
:101D280010B594B000220192204B196C41F08051FB
:101D380019641B6C03F080530193019B02921C49A8
:101D48000B6823F4404343F400430B600B6803F42F
:101D580040430293029B0323089301230B930992A8
:101D680010210C9102230E930F921091C022119210
:101D780012930423139308A8FEF790FB18B10024CC
:101D8800204614B010BD04460F2303930223049386
:101D9800002305934FF4805206920793032103A86A
:101DA800FEF7C2FD0028EBD10124E9E70038024024
:101DB8000070004008B50020FFF762FF00B108BDC1
:101DC8000120FFF75DFF0028F9D1FFF7A9FF0028E0
:101DD800F5D1CF210148FFF791FBF0E71C2E000851
:101DE800DFF834D0002103E00C4B5B58435004313A
:101DF8000B480C4B42189A42F6D30B4A02E00023D8
:101E080042F8043B094B9A42F9D3FFF779FB00F0FB
:101E1800FDFB00F02AFA7047000002205430000849
:101E2800000000208C0000208C000020700300209F
:101E3800FEE70000F8B50D46232817D82C4B33F9D8
:101E48001040B4F1FF3F33D0C4F30316294B53F8C5
:101E5800263004F00F07FB4013F0010F10D1052DB9
:101E680040D8DFE805F02135262B303A25380928F7
:101E78001ED8214B53F820201D4B33F91240E0E7C0
:101E88001E492046FFF7C4F950B91A4951F82630BF
:101E9800012202FA07F723EA070341F82630DEE7B2
:101EA8002046FFF7FFFDF0E700212046FFF7C2F9C3
:101EB800F8BD10212046FFF7BDF9F9E7202120469B
:101EC800FFF7B8F9F4E703212046FFF7B3F9EFE786
:101ED80001212046FFF7AEF9EAE709212046FFF77E
:101EE800A9F9E5E749210648FFF708FBE0E700BF45
:101EF800A82E00083C020020802E0008542C000860
:101F0800F02E0008232811D8114B33F91030C3F3F1
:101F18000312052A17D80F4850F8222003F00F03A0
:101F28000D4850F8233081B193617047253809284E
:101F380006D80A4B53F82020054B33F91230E6E750
:101F48004FF0FF33E3E70022E8E71B049361704793
:101F5800A82E00080C000020EC2B0008802E00089A
:101F680008B5FFF721F908BD00B9704738B5044630
:101F7800FFF71AF9054600F08EF9FFF715F9401B2F
:101F8800A042F8D338BD00000346154A904217D046
:101F98004FF6FF70B3F1804F14D0124A934213D01A
:101FA800114A934212D0114A934211D0104A9342D7
:101FB80010D0104A93420FD00F4A93420ED0704768
:101FC8000020E7E70120E8E70220E9E70320EAE745
:101FD8000420EBE70520ECE70620EDE70720EEE715
:101FE800000001400004004000080040000C0040D0
:101FF80000400140004401400048014070B50546DA
:10200800064656F8100FFFF7BFFF04463046FFF7A5
:102018003BFB00230A4A42F82430EB6015F15806CE
:102028000CD005F1A804A64208D0103CA368002BE8
:10203800F9D00322214620469847F4E7284670BD88
:102048001C02002070B504460D4600F15802042316
:10205800002B04DB002090601032013BF8E7284693
:10206800FFF792FF06464FF6FF7398421DD004F122
:102078000C03284A42F826302561002584F82C50A4
:1020880025636563A563E56325646564A56484F8D1
:102098004C5084F84D50E4600E232365656504F1C7
:1020A80010063046FFF754FA05E02F211A48FFF7CB
:1020B80025FADCE70135042D12DCAB1D1B01E358C2
:1020C800002BF7D0280158302044032201469847B6
:1020D800AB1D190104EB0313002262505A60E9E7B3
:1020E800002305E00022E25404EB43018A80013317
:1020F800032BF7DD002363614FF6FF72E261A361F2
:10210800236263628023A3623046FEF7FBFD20460C
:1021180070BD00BF1C0200204C2F000808B5064BFC
:10212800186810B10430FEF7E2FC034B986910B14F
:102138000430FEF7DCFC08BD1C02002008B5034B88
:10214800186810B10430FEF7D2FC08BD1C0200204C
:1021580008B5034B586810B10430FEF7C8FC08BD39
:102168001C02002008B5034B986810B10430FEF734
:10217800BEFC08BD1C02002008B5034BD86810B18E
:102188000430FEF7B4FC08BD1C02002008B5034B60
:10219800186910B10430FEF7AAFC08BD1C02002023
:1021A80008B5034B586910B10430FEF7A0FC08BD10
:1021B8001C02002008B5034BD86910B10430FEF7A3
:1021C80096FC08BD1C02002010B5044648B1204604
:1021D800FFF7BCF90068036E13B15830FFF72AFD0A
:1021E80010BD40F226410248FFF788F9EFE700BF2B
:1021F8004C2F000808B5FFF7E7FF08BD38B50546BE
:1022080048B12B7F013B072B19D8DFE803F00A1BE5
:10221800180C1818181940F239410B48FFF76EF9D5
:10222800EFE7012400E003242846FFF78FF903684D
:1022380020015830184483680BB1FFF7FBFC38BD08
:102248000424F1E70224EFE74C2F000808B5FFF754
:10225800D5FF08BD08B5FFF7D1FF08BD08B50320B5
:10226800FEF76CF800F013F808BD08B5AFF300806E
:10227800FDF7C8FFFDF7CCFF00F00EF8FAE708B548
:1022880000F0E8F908BD08B500F0ECF908BD08B59C
:10229800FEF7B6FF08BD704708B5054B1BB10548EA
:1022A80000F024F800B908BDAFF30080FBE700BFD9
:1022B8000000000054020020B0F862309BB20133E5
:1022C8005A4203F03F0302F03F0258BF53429BB209
:1022D800A0F86230B0F85E20B0F862309BB29A4243
:1022E80001D0002070474FF0FF307047B0F8F4304D
:1022F8009BB24033B0F8F000181A00F03F00704766
:10230800B0F8F4309BB2B0F8F020934203D0D0F884
:10231800E830985C70474FF0FF307047037C33B16A
:10232800B0F8F220B0F8F6309BB29A42F8D1704774
:10233800914215D0A0F8E210A0F8E02000F11103B6
:10234800C0F8E8300023A0F8F430A0F8F03000F12D
:102358005102C0F8EC20A0F8F230A0F8F63070472F
:102368004FF6FF73A0F8E230E6E70000232905D80E
:10237800094B33F91130A0F8E230704725390929A3
:1023880006D8064B53F82120034B33F91230F2E7F5
:102398004FF0FF33EFE700BFA82E0008802E00089B
:1023A800232905D8094B33F91130A0F8E0307047DC
:1023B8002539092906D8064B53F82120034B33F950
:1023C8001230F2E74FF0FF33EFE700BFA82E000806
:1023D800802E000870B504461646002343604FF46B
:1023E8007A738360164B03604FF6FF73A0F8E230F0
:1023F800144B984217D00D4613492846FFF762F848
:10240800A4F8E20011492846FFF75CF8A4F8E000B8
:10241800012E10D0B4F9E020B4F9E2102046FFF7FD
:1024280087FF204670BD0A21FFF7A0FF092120463B
:10243800FFF7B6FFECE74FF6FF73A4F8E230E9E7E1
:10244800B42F0008540200208C2D0008D42D000859
:10245800012800D0704708B54FF6FF73994200D0A5
:1024680008BD002202490348FFF7B4FFF8E700BFA0
:102478000010014054020020B0F9E200B0F1FF3F23
:1024880014BF00200120704770B504460D46012393
:102498000374FFF7F1FF10B194F8F830E3B9B4F81A
:1024A800F210481C434200F03F0003F03F0358BFBE
:1024B8005842C6B2B4F8F6309BB2C2B29342F9D0D1
:1024C800D4F8EC305D54A4F8F26094342046FFF759
:1024D80005FA48B1012070BD002384F8F83004F1F2
:1024E8009400FFF731FADAE702492046FFF708FAC5
:1024F800F0E700BFC122000810B50446FFF7BCFF93
:1025080030B123685B692046984794F8F83003B1E6
:1025180010BD012384F8F83004F19400FFF728FA7D
:10252800F6E710B50446FFF7E7FFB4F8F42092B2D7
:10253800B4F8F0309A4208D0D4F8E820D05C0133DF
:1025480003F03F03A4F8F03010BD4FF0FF30FBE775
:1025580008B54FF6FF710120FFF77AFF08BDF8B5FF
:1025680005460C460026571E4AB12B681B6814F80E
:10257800011B2846984710B101363A46F3E7304622
:10258800F8BD10B50446FFF7EBFCE0602368DB6894
:1025980020469847002808DAFFF7E2FCE368C01AEB
:1025A800A3689842F2D34FF0FF3010BDF8B5074644
:1025B8000C4616460025B5420AD23846FFF7E1FF19
:1025C800002805DB214601F8010B01350C46F2E72E
:1025D8002846F8BD2DE9F04198469BB106460F46BE
:1025E8001446002504E0224602F8010B0135144682
:1025F800454508D23046FFF7C4FF002803DB874271
:10260800F1D100E01D462846BDE8F08170B50D4DBA
:102618000D4C641BA4100026A64209D10B4D0C4C8E
:1026280000F0A0FA641BA4100026A64205D170BDD4
:1026380055F8043B98470136EEE755F8043B9847B0
:102648000136F2E73C3000083C3000083C30000816
:102658004C300008024B0146186800F05BB800BF18
:1026680028000020024B0146186800F003B800BF9C
:102678002800002037B5002948D051F8043C0190C3
:10268800002BA1F10404B8BFE41800F0AFF8204A09
:1026980001981368154633B96360146003B0BDE848
:1026A800304000F0A9B8A3420BD9216862189342C0
:1026B80004BF1A685B68636004BF521822602C600C
:1026C800ECE71A465B680BB1A342FAD911685518B2
:1026D800A5420BD1246821445418A3421160DDD1CE
:1026E8001C685B68536021441160D7E702D90C234A
:1026F8000360D3E7256861198B4204BF19685B68DA
:10270800636004BF491921605460C7E703B030BD56
:1027180054030020F8B5CD1C25F0030508350C2D11
:1027280038BF0C25002D064601DBA94203D90C232E
:1027380033600020F8BD00F059F821490A681446B2
:102748009CB9204F3B6823B92146304600F03CF83D
:1027580038602946304600F037F8431C23D10C2353
:102768003360304600F048F8E3E723685B1B17D472
:102778000B2B03D923601C44256004E06368A24244
:102788000CBF0B605360304600F036F804F10B00C4
:10279800231D20F00700C21ACCD01B1AA350C9E78A
:1027A80022466468CCE7C41C24F00304A042E3D0AA
:1027B800211A304600F008F80130DDD1CFE700BF1C
:1027C800540300205803002038B5064D0023044662
:1027D80008462B60FDF72EFD431C02D12B6803B180
:1027E800236038BD60030020704770470148FFF739
:1027F800FBBF00BF680300200148FFF7F6BF00BF1A
:10280800680300202DE9F047089D04468C46002BFC
:1028180040F083808A42174647D9B2FA82F242B121
:10282800C2F1200024FA00F09140974040EA010CE0
:1028380094404FEA1748230CBCFBF8F61FFA87FEB2
:1028480008FB16C143EA014306FB0EF1994209D978
:10285800FB1806F1FF3080F01981994240F2168189
:10286800023E3B445B1AA4B2B3FBF8F008FB1033FA
:1028780044EA034400FB0EFEA64509D93C1900F1C1
:10288800FF3380F00581A64540F2028102383C44BE
:1028980040EA0640A4EB0E0400261DB1D4400023F4
:1028A800C5E900433146BDE8F08702B9FFDEB2FA58
:1028B80082F2002A50D1CB1B4FEA174E1FFA87F835
:1028C8000126B3FBFEFC210C0EFB1C3341EA03413D
:1028D80008FB0CF38B4207D979180CF1FF3002D2B0
:1028E8008B4200F2E9808446C91AA3B2B1FBFEF01C
:1028F8000EFB101143EA014408FB00F8A04507D974
:102908003C1900F1FF3302D2A04500F2D9801846E5
:10291800A4EB080440EA0C40BFE78B4209D9002D1C
:1029280000F0B1800026C5E9000130463146BDE817
:10293800F087B3FA83F6002E4AD18B4202D3824243
:1029480000F2B880841A61EB030101208C46002D47
:10295800A8D0C5E9004CA5E7C2F1200320FA03F688
:10296800974001FA02F04FEA174ED9403043030C62
:10297800B1FBFEF61FFA87F80EFB161143EA014376
:1029880006FB08F1994204FA02F409D9FB1806F18A
:10299800FF3C80F08D80994240F28A80023E3B44A1
:1029A8005B1A81B2B3FBFEF00EFB103341EA034120
:1029B80000FB08F38B4207D9791800F1FF3C73D26A
:1029C8008B4271D902383944CB1A40EA064678E777
:1029D800C6F1200C03FA06F422FA0CF31C4320FA81
:1029E8000CF701FA06F34FEA144E21FA0CF11F43D3
:1029F8003B0CB1FBFEF91FFA84F80EFB191143EAF0
:102A0800014109FB08FA8A4502FA06F200FA06F3C0
:102A180008D9611809F1FF3048D28A4546D9A9F189
:102A280002092144A1EB0A01BFB2B1FBFEF00EFB83
:102A3800101147EA014700FB08F8B84507D9E7191C
:102A480000F1FF312ED2B8452CD90238274440EA8C
:102A58000940A7EB0807A0FB02894F45C64649462F
:102A68001AD317D05DB1B3EB0E0267EB010707FA73
:102A78000CFCF2404CEA0202F740C5E900270026A8
:102A88003146BDE8F0872E4628460BE70646E9E6BC
:102A98001846FDE64345E5D2B8EB020E69EB0401A2
:102AA8000138DFE70846D2E760468DE78146B9E797
:102AB800664675E730464AE7ACF1020C394413E73D
:102AC80002383C4424E700BF08B500F000F808B518
:102AD800062000F02BF80120FDF7D0FB1F2938B5A0
:102AE80004460D4604D9162303604FF0FF3038BD65
:102AF800426C12B152F821304BB9204600F030F840
:102B08002A4601462046BDE8384000F017B8012B98
:102B18000AD0591C03D1162303600120E7E70024DB
:102B280042F82540284698470020E0E7024B014636
:102B38001868FFF7D3BF00BF2800002038B5074D3D
:102B480000230446084611462B60FDF799FB431CF9
:102B580002D12B6803B1236038BD00BF6003002099
:102B6800FDF796BBF8B500BFF8BC08BC9E46704799
:0C2B7800F8B500BFF8BC08BC9E467047D2
:102B84002F686F6D652F6F6E656C6966652F2E619A
:102B9400726475696E6F31352F7061636B6167653F
:102BA400732F53544D33322F6861726477617265A9
:102BB4002F73746D33322F312E392E302F6C69629E
:102BC4007261726965732F537263577261707065B5
:102BD400722F7372632F73746D33322F70696E6D3D
:102BE40061702E630000000001000000020000007C
:102BF4000400000008000000100000002000000095
:102C040040000000800000000001000000020000FD
:102C14000004000000080000001000000020000074
:102C240000400000008000000000000000000000E0
:102C3400010203040607080954494D3A20556E6BF6
:102C44006E6F776E2074696D6572204952516E0003
:102C540000000000000C004012820000010000008F
:102C6400000C00401202010002000000000C0040B1
:102C74001282010003000000000C00401202020056
:102C84000500000000000040128100000600000062
:102C9400000400401282000007000000000400400D
:102CA400120201000800000000000140128100002F
:102CB4000900000000000140120101000A000000A8
:102CC40000000140128101000B00000000000140DF
:102CD400120102000F0000000000004012810000F9
:102CE40010000000000400401282010011000000E6
:102CF4000004004012020200130000000000004023
:102D040012010100140000000004004012820000BF
:102D1400150000000004004012020100160000002B
:102D24000008004012820000170000000008004064
:102D34001202010018000000000800401282010085
:102D44001900000000080040120202001A000000EE
:102D540000000040128101001D000000000001403D
:102D6400128110001E000000000001401201110039
:102D74001F0000000000014012811100FFFF00004D
:102D840000000000000000000300000000440040B8
:102D9400120700000A0000000010014012070000A2
:102DA4000C00000000140140120800001300000091
:102DB400001001401207000017000000001001403D
:102DC40012070000FFFF00000000000000000000E8
:102DD4000200000000440040120700000900000047
:102DE40000100140120700000B0000000014014015
:102DF400120800000F00000000100140120700003C
:102E0400160000000010014012070000FFFF000040
:102E140000000000000000002F686F6D652F6F6ECA
:102E2400656C6966652F2E61726475696E6F3135E4
:102E34002F7061636B616765732F53544D33322F69
:102E440068617264776172652F73746D33322F31E8
:102E54002E392E302F76617269616E74732F476537
:102E64006E657269635F4634313143782F766172DF
:102E740069616E742E637070000000000000000031
:102E84000100000002000000030000000400000034
:102E9400050000000600000007000000100000000C
:102EA40011000000000001000200030004000500FE
:102EB40006000700080009000A000B000C000D00C2
:102EC4000E000F0010001100120013001400150072
:102ED40016001700180019001A001C001D001E001F
:102EE4001F002D002E002F00500051002F686F6D21
:102EF400652F6F6E656C6966652F2E6172647569E6
:102F04006E6F31352F7061636B616765732F535436
:102F14004D33322F68617264776172652F73746DFB
:102F240033322F312E392E302F636F7265732F6138
:102F3400726475696E6F2F776972696E675F646911
:102F4400676974616C2E63002F686F6D652F6F6EF7
:102F5400656C6966652F2E61726475696E6F3135B3
:102F64002F7061636B616765732F53544D33322F38
:102F740068617264776172652F73746D33322F31B7
:102F84002E392E302F636F7265732F6172647569E9
:102F94006E6F2F486172647761726554696D6572F2
:102FA4002E637070000000000000000000000000AC
:102FB4009124000867250008F52200082B25000845
:102FC4000923000825230008B5250008DD2500088D
:102FD40000000000000000000000000000000000ED
:102FE40000000000000000000000000000000000DD
:102FF40000000000000000000000000000000000CD
:1030040000000000000000000000000000000000BC
:1030140000000000000000000000000000000000AC
:10302400000000000000000000000000000000009C
:08303400D8F7FF7F0100000046
:10303C0065220008F10100086D1C000859250008E4
:08304C00CD0100087B1C000807
:103054007003002001000000100000000000024086
:103064000004024000080240000C0240001002402C
:10307400001C02400024F4002C000020000000008A
:10308400F42F000814300008D42F000800000000BA
:10309400000000000000000000000000000000002C
:1030A400000000000000000000000000000000001C
:1030B400000000000000000000000000000000000C
:1030C40000000000000000000000000000000000FC
:0C30D400000000000000000000000000F0
:0400000508001DE9E9
:00000001FF
