:020000040800F2
:1000000000000820992A0008E92A0008E92A0008C7
:10001000E92A0008E92A0008E92A0008000000008F
:10002000000000000000000000000000E92A0008B5
:10003000E92A000800000000E92A0008731E0008F1
:10004000E92A0008E92A0008E92A0008E92A000844
:10005000E92A0008E92A0008911F0008971F0008F4
:100060009D1F0008A31F0008A91F0008E92A000817
:10007000E92A0008E92A0008E92A0008E92A000814
:10008000E92A0008E92A0008E92A0008E92A000804
:10009000E92A0008E92A0008E92A0008AF1F000839
:1000A0003D1B0008551A0008511B0008791A00086A
:1000B0008D1A0008A11A0008B51A0008E92A0008DC
:1000C000E92A0008E92A0008E92A0008E92A0008C4
:1000D000E92A00080D280008252800084128000802
:1000E000D71F0008E92A0008E92A0008651B000854
:1000F000051B0008791B0008291B0008E92A0008D5
:10010000E92A0008E92A0008C91A0008E92A0008B3
:100110005D28000875280008DD1A0008F11A00089B
:10012000E92A0008E92A0008E92A0008E92A000863
:10013000E92A0008E92A0008E92A0008E92A000853
:10014000E92A0008E92A0008E92A0008E92A000843
:10015000E92A0008E92A0008E92A00088D28000891
:10016000E92A0008E92A0008E92A0008E92A000823
:10017000E92A0008E92A0008E92A0008000000002E
:10018000E92A0008E92A0008A5280008BD28000877
:10019000E92A0008E92A0008E92A0008E92A0008F3
:1001A000E92A0008E92A0008E92A0008E92A0008E3
:1001B000E92A0008E92A0008E92A0008E92A0008D3
:1001C000E92A0008E92A000800000000E92A0008DE
:1001D000E92A0008E92A0008E92A0008E92A0008B3
:1001E000E92A0008E92A0008E92A0008E92A0008A3
:0801F000E92A0008E92A0008D1
:1001F80053B94AB9002908BF00281CBF4FF0FF3186
:100208004FF0FF3000F00CB8ADF1080C6DE904CEEA
:1002180002F060FEDDF804E0DDE9022304B0704777
:10022800704700BF10B5054C237833B9044B13B1A0
:100238000448AFF300800123237010BDB0000020F4
:10024800000000007032000808B5034B1BB10349D9
:100258000348AFF3008008BD00000000B400002090
:10026800703200080121D72002F03CBC08B50121FA
:10027800D72002F0A1FCC82002F0D4FCD72000212E
:1002880002F09AFCC820BDE8084002F0CBBC7047D9
:1002980038B50E4B05461A784FF47A73B3FBF2F370
:1002A8000B4A1068B0FBF3F000F090F8044658B918
:1002B8000F2D09D8024629464FF0FF3000F046F8C6
:1002C800044B20461D6038BD0120FCE700000020DB
:1002D800580000200400002008B5094B03201A68C4
:1002E80042F400721A601A6842F480721A6000F0D0
:1002F8001BF80020FFF7CCFFFFF7C9FF002008BD5F
:10030800003C0240034A044B11681B780B441360FD
:10031800704700BFCC00002000000020014B186887
:10032800704700BFCC00002007490302CA6803F4E5
:10033800E06322F4E0621204120C134343F0BF633B
:1003480043F40033CB60704700ED00E0164B30B546
:10035800DC68C4F30224C4F10703251D042B28BF5D
:100368000423062D4FF0FF358CBF033C002405FA0B
:1003780003F3002805FA04F521EA030322EA05023B
:1003880003FA04F343EA02034FEA0313DBB206DB82
:1003980000F1604000F5614080F8003330BD00F0A6
:1003A8000F00024A1354F9E700ED00E014ED00E0F5
:1003B800002807DB0123410900F01F00024A83409F
:1003C80042F82130704700BF00E100E00138B0F189
:1003D800807F0BD24FF0E023054AF02158610020BE
:1003E80082F82310072298611A617047012070472C
:1003F80000ED00E0002808DB4309012200F01F009F
:1004080002496033824041F82320704700E100E050
:10041800704708B5FFF7FCFF08BD704710B50446E4
:1004280008B9012010BD437F03F0FF0213B902771A
:10043800FFF7F3FF022363772379E3B92368134AAD
:100448005A619A6822F018029A6062792368D2B9D0
:100458004FF0FF321A6100209A68616922F0600249
:100468000A43A1699A609A6822F080020A439A6056
:1004780001236377D6E7D4E90212204600F008F892
:100488000028E2D0CDE72269E4E700BFB71DC10428
:10049800CB0710B50BD51E2321FA03F4E40708D5C2
:1004A800102A18D0102A09D862B1082A15D00120BC
:1004B80010E0013BF0D2102AF4D1F8E7182AF6D15F
:1004C800062BF4D800684161836823F018031343AE
:1004D8008360002010BD072BF3E70F2BF1E710B561
:1004E800044640B10223037101F064FC002020613E
:1004F8006071207110BD0120FCE7012310B558B1CF
:10050800046801F01001226803FA01F122EA0102ED
:1005180022600371002010BD1846FCE770B5044640
:10052800866DFFF7FBFE054694F83530022B06D0A2
:10053800802301206365002384F8343070BD23686C
:100548001A6822F016021A605A6922F080025A616B
:10055800226C0AB9A26C1AB11A6822F008021A6051
:100568001A6822F001021A602368186810F0010066
:1005780007D1E26D3F239340B360012384F83530FF
:10058800D9E7FFF7CBFE401B0528EDD92023032030
:10059800636584F83500CEE790F83530022B03D038
:1005A80080234365012070470268052380F83530B1
:1005B8000020136823F0010313607047044A51694F
:1005C800014208B502D0506101F0C8FC08BD00BF67
:1005D800003C0140194B37B51A6C194C42F0805257
:1005E8001A641B6C03F080530193019B236843F446
:1005F80080332360FFF792FE05466368DA030CD563
:1006080023680F4D43F400332360FFF787FE044649
:100618006B689B030AD5002006E0FFF77FFE401BAE
:10062800B0F57A7FE9D9032003B030BDFFF776FE35
:10063800001BB0F57A7FEBD9F5E700BF0038024020
:10064800007000402DE9F341044618B9012002B0BA
:10065800BDE8F0810368DE0710D423689D075ED4E7
:100668002368190700F1A38023685A0700F1C480A2
:10067800A269002A40F02E810020E8E7934B9A688F
:1006880002F00C02042A07D09A6802F00C02082A29
:100698000AD15B68590207D58C4B1B689A03DCD5D5
:1006A8006368002BD9D1D1E76368884DB3F5803FE3
:1006B80011D12B6843F480332B60FFF72FFE834E54
:1006C800054633689B03C8D4FFF728FE401B6428FF
:1006D800F7D90320BBE79BB92B6823F480332B6041
:1006E8002B6823F480232B60FFF718FE06462B683F
:1006F8009F03B2D5FFF712FE801B6428F7D9E8E7FD
:10070800B3F5A02F2B6803D143F480232B60D0E7E7
:1007180023F480332B602B6823F48023CCE76B4BC6
:100728009A6812F00C0F07D09A6802F00C02082A97
:1007380011D15B685D020ED4644A1368990702D52B
:10074800E368012B82D11368216923F0F80343EA97
:10075800C103136084E7E3685C4DBBB12B6843F0C9
:1007680001032B60FFF7DAFD06462B689B0707D5C8
:100778002B68226923F0F80343EAC2032B606FE772
:10078800FFF7CCFD801B0228EFD9A2E72B6823F0E6
:1007980001032B60FFF7C2FD06462B689F077FF514
:1007A8005FAFFFF7BBFD801B0228F6D991E76369AD
:1007B800464D83B16B6F43F001036B67FFF7AEFDE6
:1007C80006466B6F9B073FF54FAFFFF7A7FD801BF2
:1007D8000228F6D97DE76B6F23F001036B67FFF7FB
:1007E8009DFD06466B6F9F077FF53EAFFFF796FDB1
:1007F800801B0228F6D96CE7344B1A6CD50027D435
:100808001A6C012742F080521A641B6C03F0805363
:100818000193019B2E4D2B68D8051BD5A3682B4D42
:10082800012B27D12B6F43F001032B6741F2883846
:10083800FFF774FD254E0546336F9A073FD5002F05
:100848003FF416AF214A136C23F0805313640FE76B
:100858000027DFE72B6843F480732B60FFF75EFD0A
:1008680006462B68D905D9D4FFF758FD801B6428A4
:10087800F7D92EE7ABB92B6F41F2883823F0010383
:100888002B672B6F23F004032B67FFF747FD064602
:100898002B6F9B07D3D5FFF741FD801B4045F7D948
:1008A80017E7052B2B6F03D143F004032B67B9E738
:1008B80023F001032B672B6F23F00403B5E7FFF741
:1008C8002DFD401B4045B7D903E700BF0038024063
:1008D800007000403C4DAB6803F00C03082B42D07D
:1008E8002B68022A23F080732B602FD1FFF716FDA7
:1008F80006462B68990123D4D4E907321343626A68
:1009080043EA8213E26A43EA0263226B43EA027310
:10091800A26A5208013A43EA02436B602B6843F02B
:1009280080732B60FFF7FAFC274D04462B689A0169
:100938003FF5A2AEFFF7F2FC001B0228F6D9C8E685
:10094800FFF7ECFC801B0228D3D9C2E6FFF7E6FCD0
:1009580004462B689B017FF58FAEFFF7DFFC001B79
:100968000228F6D9B5E6012A6B683FF46FAE03F4A6
:100978008002E1698A427FF469AE03F03F02216A8E
:100988008A427FF463AE47F6C072616A1A40B2EBDE
:10099800811F7FF45BAEA26A03F440315208013A2A
:1009A800B1EB024F7FF452AE03F07062E16AB2EB32
:1009B800016F7FF44BAE226B03F0E043B3EB027F91
:1009C80014BF0120002042E600380240134908B550
:1009D8008B6803F00C03042B1BD0082B1BD14A682F
:1009E8004B68496802F03F0213F48003C1F3881191
:1009F8001ABF0B4800230B48A1FB0001FFF7F8FBC7
:100A0800064B5B68C3F3014301335B00B0FBF3F0B3
:100A180008BD0348FCE70348FAE700BF0038024076
:100A280000127A000024F4002DE9F0410D46044636
:100A380010B90120BDE8F081454A136803F00F039F
:100A48008B4228D321688F0730D4C80743D4404A43
:100A5800136803F00F03AB4266D8226851076FD4BE
:100A6800130707D53B4A2169936823F4604343EA97
:100A7800C1039360FFF7AAFF364B374A9B68C3F35D
:100A88000313D35CD840354B1860354B1868FFF713
:100A9800FFFB0020CEE7136823F00F030B4313601E
:100AA800136803F00F038B42C3D1CBE711F0040F97
:100AB800284B03D09A6842F4E0529A600E0703D597
:100AC8009A6842F460429A609A68A06822F0F0023C
:100AD80002439A60B9E761681E4B01291A681BD165
:100AE80012F4003FA5D09A6841F28838194F22F0D5
:100AF80003020A439A60FFF711FC0646BB68626866
:100B080003F00C03B3EB820FA1D0FFF707FC801BA7
:100B18004045F3D903208DE7022902D112F0007F66
:100B2800E0E712F0020FDDE7136823F00F032B4311
:100B38001360136803F00F03AB427FF47AAF8CE7BE
:100B48000449E0688B6823F4E05303438B6087E72C
:100B5800003C024000380240C8320008580000201B
:100B6800040000202DE9F7430268044612F001034F
:100B78000BD0AF498B6823F400038B60636B8868E4
:100B88001843B3FA83F35B09886012F4002612D085
:100B9800A748E66BD0F88C10B6F5801F21F44011F9
:100BA80008BF012341EA060116BFB6FA86F60026F9
:100BB8007609C0F88C10D00211D59D4D206CD5F85F
:100BC8008C10B0F5800F21F4400141EA0001C5F80E
:100BD8008C1000F0A981002808BF46F00106C2F376
:100BE8000067910647EA030731D5914B914D1A6C7E
:100BF80042F080521A641B6C03F080530193019BEE
:100C08002B6843F480732B60FFF788FB80462B68C2
:100C1800DA0540F18B81864D2B6F13F4407340F059
:100C28009081236B03F44072B2F5407F804A40F014
:100C3800AE81916823F0704021F4F81120F44070DF
:100C480001439160C3F30B03116F0B4313672568CE
:100C5800E9060CD5764BD3F88C2022F08072C3F8C5
:100C68008C20D3F88C20A16B0A43C3F88C206A042B
:100C780008D56F4A616ED2F8903023F440330B43A5
:100C8800C2F890302B0408D5694AA16ED2F890308A
:100C980023F440230B43C2F89030E80308D5644A94
:100CA800E16ED2F8903023F440130B43C2F8903031
:100CB800A90308D55E4A216FD2F8903023F4400387
:100CC8000B43C2F890306A0608D5594A616CD2F8CD
:100CD800903023F003030B43C2F890302B0608D55D
:100CE800534AA16CD2F8903023F00C030B43C2F89E
:100CF8009030E80508D54E4AE16CD2F8903023F0E0
:100D080030030B43C2F89030A90508D5484A216D35
:100D1800D2F8903023F0C0030B43C2F890306A0534
:100D280008D5434A616DD2F8903023F440730B43E1
:100D3800C2F890302B0508D53D4AA16DD2F8903005
:100D480023F440630B43C2F89030E80408D5384ACE
:100D5800E16DD2F8903023F440530B43C2F8903041
:100D6800A90408D5324A216ED2F8903023F44043C2
:100D78000B43C2F890306A0208D52D4AA16FD2F809
:100D8800903023F080630B43C2F89030AB020DD54E
:100D98002749E26FD1F89030B2F1006F08BF46F0F2
:100DA800010623F000631343C1F89030680308D5A7
:100DB8001F4A616FD2F8903023F040730B43C2F89A
:100DC8009030290209D51A4AD4F88010D2F8903008
:100DD80023F080530B43C2F890306A0109D5144AB6
:100DE800D4F88410D2F8903023F000530B43C2F8A3
:100DF80090302B0109D50E4AD4F88810D2F88C30DF
:100E080023F000730B43C2F88C30E80009D5084A78
:100E1800D4F88C10D2F88C3023F080630B43C2F8DE
:100E28008C30002F40F0B780A90100F1B48003E0B6
:100E38000038024000700040C5F3C0053543012D5D
:100E480070D19F4D2B6823F080532B60FFF766FA13
:100E580006462B689F0000F1248121680E0301D506
:100E6800E36B1BB1CD021DD5236CDBB9944AD2F8D4
:100E78008830D2F8880003F4403300F0E0400343A0
:100E8800606943EA8013A06943EA0063C2F88830C6
:100E9800D2F88C30A06A23F4F853013843EA0023CF
:100EA800C2F88C30880215D5E36FB3F1006F11D109
:100EB800834AD2F88830D2F8880003F0706300F0D3
:100EC800E0400343606943EA8013206A43EA004331
:100ED800C2F888300A0719D57949D1F88820D1F89D
:100EE800883002F0706203F440331343626943EAC6
:100EF8008213E26943EA0273C1F88830D1F88C3072
:100F0800E26A23F440331343C1F88C306C4C2368F5
:100F180043F080532360FFF701FA054623689B00DE
:100F280040F1C680002009E0012358E6FFF7F6F9F2
:100F3800A0EB080064287FF66AAE032003B0BDE882
:100F4800F083226B02F4407293423FF46AAE2B6F37
:100F58002A6F23F4407342F480322A672A6F22F4FE
:100F680080322A672B672B6FDB077FF55AAEFFF7B6
:100F7800D5F941F2883980462B6F98073FF551AE75
:100F8800FFF7CCF9A0EB08004845F5D9D5E79168FB
:100F980021F4F81155E64A4F3B6823F080633B6023
:100FA800FFF7BCF980463B681A0173D42268D3075F
:100FB80012D5636B83B9D7F88430D7F8841003F45B
:100FC800403301F070610B43616843EA8113A16803
:100FD80043EA0173C7F88430170303D5E36BB3F50D
:100FE800801F05D0D0021ED5236CB3F5800F1AD10F
:100FF8003349D1F88430D1F8840003F4403300F049
:10100800E0400343606843EA8013E06843EA006312
:10101800C1F88430D1F88C00636A20F01F00013BCE
:101028000343C1F88C30D10111D52549D1F884305A
:10103800D1F8840003F0706300F0E0400343606877
:1010480043EA8013206943EA0043C1F884309201DF
:101058000DD5236962681B0443EA8213E26843EAF8
:101068000263A26843EA0273154AC2F88430144F37
:101078003B6843F080633B60FFF750F980463B686C
:101088001B013FF5D9AEFFF749F9A0EB080064282A
:10109800F5D952E7FFF742F9A0EB0800642882D996
:1010A8004BE7FFF73BF9801B64287FF6D2AE44E795
:1010B800FFF734F9401B64287FF630AF3DE700BFE7
:1010C8000038024070477047036870B5DD68044611
:1010D8001E69B2070DD5A9070BD56FF002021A6178
:1010E800012202779B699A0775D000F09EFD0023C4
:1010F8002377730710D568070ED523686FF00402AD
:1011080020461A61022222779B6913F4407F68D037
:1011180000F08BFD0023237731070FD52A070DD563
:1011280023686FF0080220461A6104222277DB69DF
:101138009B075CD000F079FD00232377F10610D5DA
:10114800EA060ED523686FF0100220461A610822BD
:101158002277DB6913F4407F4FD000F066FD00234F
:101168002377F30708D5E80706D523686FF001024F
:1011780020461A6100F036FD16F4025F08D02906F1
:1011880006D523686FF4025220461A6100F0C1F8B0
:10119800F20508D52B0606D523686FF48072204621
:1011A8001A6100F0B7F8700608D5690606D52368F5
:1011B8006FF0400220461A61FFF785FFB20622D57C
:1011C800AB0620D523686FF0200220461A61BDE8DF
:1011D800704000F09DB800F026FD2046FFF772FF32
:1011E80085E700F020FD2046FFF76CFF92E700F04E
:1011F8001AFD2046FFF766FF9EE700F014FD204623
:10120800FFF760FFABE770BD274A0368904212D032
:10121800B0F1804F0FD0A2F57C4290420BD002F57E
:101228008062904207D002F58062904203D002F5B6
:101238007842904208D123F070034A68134323F49C
:101248004073CA68134316E0184A9042F7D002F573
:1012580080629042F3D002F580629042EFD0A2F50E
:1012680098329042EBD002F580629042E7D002F5C6
:1012780080629042E3D04A6923F0800313438A686E
:10128800C2620A688262084A904203D002F580620C
:10129800904201D10A690263026842F004020260C6
:1012A8000122426103607047000001400040014094
:1012B80010B5044650B390F83D3003F0FF021BB957
:1012C80080F83C2001F038FA02232068211D84F8B8
:1012D8003D30FFF799FF0123002084F8483084F857
:1012E8003E3084F83F3084F8403084F8413084F848
:1012F800423084F8433084F8443084F8453084F828
:10130800463084F8473084F83D3010BD0120FCE7B2
:10131800704770477047026852E8003F23F49073A3
:1013280042E8003102680029F5D102F1080353E8C8
:10133800003F23F0010302F1080C4CE800310029BA
:10134800F3D1036E012B07D152E8003F23F01003BD
:1013580042E800310029F7D12023C0F8803000236B
:1013680003668366704708B5806B0023A0F85A307F
:1013780001F024FA08BD7047D0F88020222A08B569
:10138800036854D15B6AB0F85C10426D0B4013706F
:10139800436D01334365B0F85A30013B9BB2A0F866
:1013A8005A30B0F85A309BB2002B3FD1026852E84D
:1013B800003F23F4907342E8003103680029F5D117
:1013C80003F1080252E8002F22F0010203F1080C91
:1013D8004CE800210029F3D120228166C0F8802042
:1013E80041665A68110205D4026E012A0BD001F039
:1013F800DDF91BE053E8002F22F0806243E800216A
:101408000029F7D1F0E70022026653E8002F22F006
:10141800100243E800210029F7D1DA69D20601D584
:1014280010221A62B0F85810FFF7A5FF08BD9A6994
:1014380042F008029A61F9E7D0F88020222A08B51C
:10144800036851D1596AB0F85C201140426D22F806
:10145800021B4265B0F85A20013A92B2A0F85A200D
:10146800B0F85A2092B2002A3DD153E8002F22F456
:10147800907243E800210029F7D103F1080252E8ED
:10148800002F22F0010203F1080C4CE8002100298A
:10149800F3D120228166C0F8802041665A68110283
:1014A80005D4026E012A0BD001F080F91BE053E845
:1014B800002F22F0806243E800210029F7D1F0E7ED
:1014C8000022026653E8002F22F0100243E80021B0
:1014D8000029F7D1DA69D20601D510221A62B0F8CC
:1014E8005810FFF748FF08BD9A6942F008029A6150
:1014F800F9E70000036870B5DA6940F60F06196865
:10150800044632429D680BD1960640F188808E06CB
:1015180040F18580836E002B7BD0BDE87040184772
:101528009C4E05F001000E40064378D0D50709D53A
:10153800CE0507D501251D62D4F8845045F0010574
:10154800C4F88450950708D538B102251D62D4F82F
:10155800845045F00405C4F88450560708D538B1BE
:1015680004251D62D4F8845045F00205C4F884505F
:1015780015070BD501F02005054307D00820186290
:10158800D4F8840040F00800C4F8840016050AD591
:101598004D0108D54FF400601862D4F8843043F048
:1015A8002003C4F88430D4F88430002B31D090065E
:1015B80005D58A0603D5A36E0BB120469847266841
:1015C8002046D4F88420B36802F0280203F04003D0
:1015D80053EA02051ED0FFF79EFEB3685B0615D5D9
:1015E800226802F1080353E8003F23F04003083261
:1015F80042E800310029F3D1606F38B1664B0365CA
:10160800FEF7CAFF28B1606F036D86E7204601F038
:10161800D5F870BD01F0D2F8C4F88450F9E7206E0F
:10162800012840F08D80D60640F18A80C80640F136
:1016380087801022B4F858101A629A68520651D559
:10164800606F0268526892B2002A42D0914240D933
:10165800A4F85A20C269B2F5807F2ED053E8002F33
:1016680022F4807243E800210029F7D103F108022F
:1016780052E8002F22F0010203F1080040E800219F
:101688000029F3D103F1080252E8002F22F04002AA
:1016980003F1080040E800210029F3D12022C4F812
:1016A8008020216653E8002F22F0100243E8002131
:1016B8000029F7D1606FFEF731FF0223B4F8581004
:1016C8006366B4F85A30C91A89B22046FFF753FE48
:1016D8009FE791429DD1C369B3F5807F99D10223D9
:1016E8006366F2E7B4F85A20B4F85A0092B280B2AE
:1016F80000288ED0891A89B200298AD053E8002F91
:1017080022F4907243E800200028F7D103F1080280
:1017180052E8002F22F0010203F1080545E80020F5
:101728000028F3D12022A066C4F88020206653E860
:10173800002F22F0100243E800200028F7D1CEE75E
:10174800D60208D5680206D54FF4801220461A62E0
:1017580001F0BCF85DE7160607D50D0605D5E36E62
:10176800002B3FF456AF2046D7E650067FF551AF21
:101778004A067FF54EAF53E8002F22F0400243E8B7
:1017880000210029F7D120232046E166E36701F014
:1017980011F83EE7200100046F130008C26FD0F86B
:1017A8008000104370470000A0F858200023A0F8DC
:1017B8005A2082684165B2F5805F83662CD103693F
:1017C800002B40F2FF1318BFFF23A0F85C30002362
:1017D800C0F884302223C0F88030026802F1080380
:1017E80053E8003F43F00103083242E80031026841
:1017F8000029F2D181680369B1F5805F27D1DBB197
:10180800154B836652E8003F43F4907342E8003179
:101818000029F7D1002070472AB90369002B0CBFB3
:10182800FF237F23D1E7B2F1805FCED10369002B7C
:101838000CBF7F233F23C8E7084B836652E8003F6D
:1018480043F0200342E800310029F7D1E2E70249DA
:101858008166002BF2D0D5E78113000841140008F7
:1018680038B5D0F88030202B13D1A1B19AB100231C
:101878000468036663681B0207D554E8003F43F019
:10188800806344E80035002DF7D1FFF78DFF002075
:1018980038BD0220FCE70120FAE7836810B504464A
:1018A8002BB10322014698470023C4E9023310BD37
:1018B800836810B5044613B10322014698472046B1
:1018C80010BD0000294A0346904233D0B0F1804F42
:1018D80032D0A2F57C42904230D002F5806290422C
:1018E8002ED002F5806290422CD002F580629042A0
:1018F8002AD002F58062904228D002F570429042C8
:1019080026D04FF6FF701A4A934223D0194A9342C1
:1019180022D0194A934221D0184A934220D0184A1B
:1019280093421FD0174A93421ED04FF6FF73984236
:101938001BD1FEE70020E6E70120E7E70220E8E701
:101948000320E9E70420EAE70520EBE70620ECE7B7
:101958000720704708207047092070470A20704701
:101968000B2070470C2070470D2070470000014085
:101978000040014000440140004801400018004078
:10198800001C004000200040C16D70B504460846A8
:10199800FFF798FF0546084604F1680600F07EFD4B
:1019A8000023074A42F8253004F1B805E360B54240
:1019B80004D0103D2846FFF77BFFF8E7204670BDAE
:1019C800D0000020F8B504460846FFF77BFF0D4617
:1019D800E26D02B1FEE704F10C031B4904F168064D
:1019E80004F1B80741F820300E232846E565E46085
:1019F800C4E9183200F06AFC30461036FFF74DFF94
:101A0800BE42F9D100234FF6FF7204F110002561A0
:101A1800A36084F82C30A36484F84C3084F84D30EB
:101A28006361C4E90033C4E90C33C4E90E33C4E983
:101A38001033C4E90632C4E908338023A362BDE841
:101A4800F840FFF735BC00BFD000002010B5074CA8
:101A5800206810B10430FFF737FB606A20B104300A
:101A6800BDE81040FFF730BB10BD00BFD00000201C
:101A7800034B186810B10430FFF726BB704700BF4E
:101A8800D0000020034B586810B10430FFF71CBB8E
:101A9800704700BFD0000020034B986810B1043095
:101AA800FFF712BB704700BFD0000020034BD86877
:101AB80010B10430FFF708BB704700BFD00000200A
:101AC800034B186910B10430FFF7FEBA704700BF26
:101AD800D0000020034B586910B10430FFF7F4BA66
:101AE800704700BFD0000020034B986910B1043044
:101AF800FFF7EABA704700BFD000002010B5074CC6
:101B0800E06910B10430FFF7DFFA206B20B1043030
:101B1800BDE81040FFF7D8BA10BD00BFD0000020C4
:101B2800034BD86910B10430FFF7CEBA704700BF35
:101B3800D0000020034B186A10B10430FFF7C4BA74
:101B4800704700BFD0000020034B986A10B10430E2
:101B5800FFF7BABA704700BFD0000020034BD86A1D
:101B680010B10430FFF7B0BA704700BFD0000020B2
:101B7800034B586B10B10430FFF7A6BA704700BF8B
:101B8800D00000200022C0E90022C0E902227047EC
:101B9800F8B504460E4600F1680500F1B807284676
:101BA8001035FFF7EFFFBD42F9D10023204631463B
:101BB800E365FFF707FF2046F8BD826810B50AB94C
:101BC80001F004FBC368BDE81040184708B500B928
:101BD800FEE700F079FB0068036F13B16830FFF788
:101BE800ECFF08BDFFF7F2BF10B500B9FEE7037FB1
:101BF800013B072B10D8DFE803F004140F100F0F78
:101C08000F120124240100F05FFB006868342044AF
:101C180083680BB1FFF7D1FF10BD0324F2E704245A
:101C2800F0E70224EEE7FFF7DFBFFFF7DDBF01F0C3
:101C38000BB801F011B800008CB00A2800F28D80B2
:101C4800DFE800F006131F2B37434F5B67737F00F5
:101C5800434B44481A6B42F001021A631B6B03F0B2
:101C680001030193019B0CB070473D4B3E481A6B32
:101C780042F002021A631B6B03F002030293029BF9
:101C8800F1E7374B39481A6B42F004021A631B6BB1
:101C980003F004030393039BE5E7314B34481A6BC5
:101CA80042F008021A631B6B03F008030493049BB9
:101CB800D9E72B4B2F481A6B42F010021A631B6BA3
:101CC80003F010030593059BCDE7254B2A481A6BB3
:101CD80042F020021A631B6B03F020030693069B55
:101CE800C1E71F4B25481A6B42F040021A631B6B71
:101CF80003F040030793079BB5E7194B20481A6B7D
:101D080042F080021A631B6B03F080030893089B60
:101D1800A9E7134B1B481A6B42F480721A631B6BBA
:101D280003F480730993099B9DE70D4B16481A6BC2
:101D380042F400721A631B6B03F400730A930A9B44
:101D480091E7074B11481A6B42F480621A631B6BC8
:101D580003F480630B930B9B85E7002083E700BFA8
:101D6800003802400000024000040240000802401F
:101D7800000C02400010024000140240001802400B
:101D8800001C0240002002400024024000280240BB
:101D9800074908B500F06AFAC0F3C430012802D038
:101DA800022802D0FEE7002008BD1020FCE700BF93
:101DB800443600080268094B9A420DD103F5E23314
:101DC8001A6A42F000521A621A6A22F000521A6223
:101DD8001A6C22F000521A64704700BF0074004069
:101DE80010B586B00849044600F02FFA019048B1B2
:101DF8002046FFF7CDFF014601A8FEF77EFB01A8AC
:101E0800FEF76DFB06B010BD44360008F8B513495F
:101E18000646134F00F019FAFFF754FD054657F828
:101E2800203073B9B820FFF702FF04460B4930464B
:101E380000F00BFA01462046FFF7AAFE57F82530B6
:101E48001C601C6844B12046FFF79EFD2046B8215F
:101E5800BDE8F840FFF7EDBEF8BD00BFD832000876
:101E6800D0000020FEF75ABA704708B5FEF74AFAC4
:101E7800FEF7CFFAFFF7F8FF08BD70470F4B84B0A5
:101E88001A6C42F080521A641A6C02F08052019265
:101E9800019A5A6C42F480425A645A6C02F48042A5
:101EA8000292029A1A6B42F480521A631B6B03F473
:101EB80080530393039B04B0704700BF003802406F
:101EC800074AD2F8B43FD90709D503F0020320B175
:101ED8002BB1044BC2F8B03F01E0002BFAD0704799
:101EE800001000E055CEACC508B50E4BD3F8FC2069
:101EF800D20105D4D3F8FC2042F08072C3F8FC204C
:101F08000120FFF7DDFF084B00225A601A680243E0
:101F18001A6000BF00BF00BF5868B0FA80F04009DF
:101F280008BD00BF00ED00E0001000E008B5FFF7B5
:101F3800A5FFFFF7D9FFFEF7CFF9FFF79EFF00F0E7
:101F4800F5FC0248BDE80840FEF768BA34000020F6
:101F58000023C0E90033C0E9023370470023012899
:101F680003F101020AD11422DBB25343054A181DBA
:101F78001044816829B11A44136918474008134668
:101F8800EDE77047080100200120FEF717BB02208B
:101F9800FEF714BB0420FEF711BB0820FEF70EBBAA
:101FA8001020FEF70BBB08B52020FEF707FB4020EA
:101FB800FEF704FB8020FEF701FB4FF48070FEF76C
:101FC800FDFA4FF40070BDE80840FEF7F7BA38B5DF
:101FD80006244FF48065A8B2FEF7F0FA013C4FEAF8
:101FE8004505F8D138BD0000344A172108B5104618
:101FF800062300F8043BFFF7ABFF072302F11800A4
:102008001375FFF7A5FF082302F12C0082F828308A
:10201800FFF79EFF092302F1400082F83C30FFF7EA
:1020280097FF0A2302F1540082F85030FFF790FF1F
:1020380002F1680082F86410FFF78AFF02F17C0061
:1020480082F87810FFF784FF02F1900082F88C1074
:10205800FFF77EFF02F1A40082F8A010FFF778FFD7
:1020680002F1B80082F8B4102821FFF771FF02F1DD
:10207800CC0082F8C810FFF76BFF02F1E00082F88D
:10208800DC10FFF765FF02F1F40082F8F010FFF7AB
:102098005FFF02F5847082F80411FFF759FF02F51B
:1020A8008E7082F81811FFF753FF02F5987082F8C6
:1020B8002C11BDE80840FFF74BBF00BF0801002006
:1020C80038B5054CA4F5A075143C201DFFF7F0FBAE
:1020D800AC42F9D138BD00BF48020020431C04D0EF
:1020E8000C3151F80C3C5A1C01D100207047834236
:1020F80001F10C01F5D1012070470000F8B5441C2E
:1021080007460D4600D1FEE700F00F02484BC0F32A
:10211800031005F0070653F82240FFF78DFD94FAE7
:10212800A4F2B2FA82F2032103468068520001FA4F
:1021380002F294FAA4F1B1FA81F120EA0200032232
:1021480049008A4002439A60032E03D8DFE806F06C
:102158006C6E3903FEE7032294FAA4F1B1FA81F117
:1021680003271868013E4900012E07FA01F120EA09
:10217800010094FAA4F1B1FA81F14FEA410102FA9F
:1021880001F242EA00021A6005D85A6829074CBFD2
:102198002243A2435A6094FAA4F2B2FA82F20320CC
:1021A80094FAA4F45200B4FA84F4D968C5F301157A
:1021B80000FA02F2640021EA0202A5401543DD603C
:1021C800F8BDC5F306217F2901D10222C4E73807EB
:1021D80016D5220A4FF00F0C92FAA2F0B0FA80F04E
:1021E8005F6A92FAA2F28000B2FA82F20CFA00F068
:1021F800920027EA000001FA02F202435A62E4E779
:1022080094FAA4F2B2FA82F20F27186A920007FA37
:1022180002F220EA020094FAA4F2B2FA82F29200E0
:10222800914001431962D0E7002295E7012293E724
:10223800883200080B685A1C01D10020704783427D
:1022480001D1486870470C31F4E7431C01D0FFF70F
:10225800F1BF0020704703460868421C00D1704750
:10226800984201D1886870470C31F5E7431C01D0CA
:10227800FFF7F1BF704700001049D1F8883043F4E8
:102288007003C1F888300E4B1A6842F001021A60D8
:1022980000229A601A6822F0847222F480321A604E
:1022A800084A5A601A6822F480221A604FF47F02A2
:1022B800DA604FF000638B60704700BF00ED00E00C
:1022C800003802401030002404387047654B8EB047
:1022D800984227D103F59C335A6C42F001025A64A4
:1022E8005B6C03F001030093009B5F4B984226D17F
:1022F80003F50A331A6C42F010021A641B6C03F0DF
:1023080010030593059B594B984226D103F570435A
:102318005A6C42F480225A645B6C03F480230A935B
:102328000A9B9DE0B0F1804F26D1514B1A6C42F0C8
:1023380001021A641B6C03F001030193019B4D4BCE
:10234800984227D103F509331A6C42F020021A6427
:102358001B6C03F020030693069B474B984227D13A
:1023680003F508331A6C42F040021A641B6C03F040
:1023780040030B930B9B73E0404B984227D103F526
:102388000D331A6C42F002021A641B6C03F002034C
:102398000293029B3A4B984227D103F59A335A6C21
:1023A80042F002025A645B6C03F002030793079B36
:1023B800344B984227D103F507331A6C42F0800258
:1023C8001A641B6C03F080030C930C9B48E02E4BA3
:1023D800984227D103F50C331A6C42F004021A64B0
:1023E8001B6C03F004030393039B284B984228D1EA
:1023F80003F578435A6C42F480325A645B6C03F4F8
:1024080080330893089B224B984229D103F5063361
:102418001A6C42F480721A641B6C03F480730D9377
:102428000D9B1DE01B4B98427FF45FAF03F50B3308
:102438001A6C42F008021A641B6C03F00803049338
:10244800049B154B98427FF45EAF03F574435A6CB6
:1024580042F400325A645B6C03F400330993099B1D
:102468000EB07047000001400010004000480140D5
:1024780000380240001400400018004000040040EA
:1024880000040140001C00400008004000400140DA
:1024980000200040000C004000440140384B9842A6
:1024A80014D1384A536C23F001035364364B9842D5
:1024B80014D1344A136C23F010031364334B98423D
:1024C80014D1304A536C23F4802357E0B0F1804F85
:1024D80015D12C4A136C23F0010313642C4B98423A
:1024E80015D1284A136C23F020031364294B984212
:1024F80015D1244A136C23F0400313647047264B0C
:10250800984214D11F4A136C23F002031364234B1F
:10251800984214D11B4A536C23F002035364204B96
:10252800984214D1174A136C23F08003E5E71D4B3A
:10253800984214D1134A136C23F0040313641A4B02
:10254800984214D10F4A536C23F480335364174BC9
:102558009842D3D10B4A136C23F48073CDE7144B04
:102568009842A3D1074A136C23F008031364114B54
:102578009842A3D1034A536C23F400335364704741
:1025880000000140003802400010004000480140AF
:1025980000140040001800400004004000040140FE
:1025A800001C00400008004000400140002000409E
:1025B800000C004000440140431C3AD0294B98428B
:1025C8003AD018D8A3F54063984237D00BD8A3F572
:1025D8000063984234D003F58063984232D0B0F15A
:1025E800804F31D0FEE7204B98422FD003F580630F
:1025F80098422DD0F6E71D4B98422DD00CD8A3F564
:102608006443984226D003F56043984226D0A3F548
:102618006443984220D0E5E7154B98421ED003F555
:10262800806398421CD0A3F500639842DAD1182041
:1026380070476FF00D0070472B20704732207047AD
:102648001D2070471E2070471C2070473620704799
:10265800372070472D2070472C207047192070476D
:102668001A20704700180040001000400004014084
:1026780000440140431C3AD02B4B98423AD01CD816
:10268800A3F58053984237D00BD8A3F5006398423E
:1026980034D003F58063984232D0B0F1804F31D006
:1026A800FEE7224B98422FD003F5806398422DD045
:1026B800A3F5006398422BD0F2E71D4B984229D02E
:1026C8000CD8A3F58043984226D003F5806398423E
:1026D80024D0A3F56443984222D0E1E7154B9842F1
:1026E80020D003F580639842DAD11A2070476FF042
:1026F8000D0070472C207047322070471D2070470E
:102708001E2070471C207047372070472B207047C9
:1027180036207047182070471B2070472E207047BE
:102728002D20704719207047001C004000140040FD
:10273800004001400044014038B504460068FFF7F6
:10274800C5FDFFF739FFD4E91412FDF7FFFD206836
:10275800FFF732FFFDF72CFE22681046FFF78AFFCD
:1027680005461046FFF728FF85420BD02846D4E9D6
:102778001412FDF7EBFD2068FFF77CFFBDE8384039
:10278800FDF716BE38BD000008B5074B90F8A52028
:1027980053F82200FFF702F800F02200A0F122030C
:1027A8005842584108BD00BF48020020D0F8883080
:1027B80004381847D0F88C300438184710B5044648
:1027C80050F80439DA69D1070CD501221A62FFF7EB
:1027D800DBFFB0B904F1A20120460122BDE8104098
:1027E800FFF73EB8DA69920701D50222EEE7DA6907
:1027F800510701D50422E9E7DA691207E7D508226B
:10280800E4E710BD08B52520FDF7F4FD024B186874
:10281800BDE80840FEF76EBE48020020262008B535
:10282800FDF7E8FD034B586818B1BDE80840FEF70E
:1028380061BE08BD48020020272008B5FDF7DAFD73
:10284800034B986818B1BDE80840FEF753BE08BDB1
:102858004802002008B53420FDF7CCFD024BD868AB
:10286800BDE80840FEF746BE4802002008B53520FE
:10287800FDF7C0FD024B1869BDE80840FEF73ABEF7
:102888004802002008B54720FDF7B4FD024B5869FF
:10289800BDE80840FEF72EBE4802002008B55220C9
:1028A800FDF7A8FD024B9869BDE80840FEF722BE77
:1028B8004802002008B55320FDF79CFD024BD8695B
:1028C800BDE80840FEF716BE48020020012200F1CC
:1028D800A201FEF7C5BF00000A490346086810B503
:1028E8000344EFF30882934205D9074B0C224FF0BB
:1028F800FF301A6010BD054A054C121B9342F4D2F2
:102908000B60F7E75C000020D403002000000820DB
:1029180000040000FEE70000024B16224FF0FF30D3
:102928001A607047D40300200120704710B5B8B072
:1029380014220021022408A800F044FA14220021DD
:1029480002A800F03FFA9022002114A800F03AFAF9
:10295800234B012100201A6C42F080521A641B6C30
:1029680003F080530093009B1E4B1A6842F44042C8
:102978001A601B68079403F440430D940193019B6C
:102988001023CDE90A130823CDE90E03D82307A89D
:10299800CDE910340923CDE91234FDF753FE00B117
:1029A800FEE7FDF717FE00B1FEE70F234FF4A05234
:1029B8000490072102A8CDE902344FF48053CDE9F1
:1029C8000523FEF731F800B1FEE74FF4001333900A
:1029D80014A81493FEF7C6F800B1FEE738B010BD8E
:1029E8000038024000700040032070B5FDF79CFCE1
:1029F800214B5A6912F4003211D1BFF34F8FBFF344
:102A08006F8FC3F85022BFF34F8FBFF36F8F5A6990
:102A180042F400325A61BFF34F8FBFF36F8F164AEB
:102A2800536913F4803323D1C2F88430BFF34F8F36
:102A3800D2F8803043F6E074C3F3C900C3F34E33D1
:102A48005B0103EA0406014646EA81750139C2F8CA
:102A58006052F9D2203B13F1200FF2D1BFF34F8F10
:102A6800536943F480335361BFF34F8FBFF36F8FC4
:102A7800BDE8704000F0E4B800ED00E008B5AFF341
:102A88000080FDF7EFFBFDF7F1FBAFF30080FAE7FD
:102A9800DFF834D0FFF7F0FB0C480D490D4A00234E
:102AA80002E0D458C4500433C4188C42F9D30A4AFB
:102AB8000A4C002301E013600432A242FBD300F069
:102AC80099F9FFF7DBFF704700000820000000209D
:102AD800B0000020B8380008B0000020DC03002057
:102AE800FEE70000C3B2742B2DE9F0410D462AD849
:102AF8002C4A00F4E06452F823301C43621C4ED088
:102B0800C4F30317284E04F00F0856F8273023FAA9
:102B180008F3DB0710D525492046FFF7DFFA18B37D
:102B28002046FFF75DF9012256F8273002FA08F22D
:102B380023EA020346F82730052D1FD8DFE805F001
:102B48001F2B25272D2900F0C002C02A27D1D72BFB
:102B580025D8174B00F03F0200F4E06453F8222018
:102B6800104B53F82230C8E712492046FFF7B6FA4F
:102B78000028D8D02046FFF749F9D4E7FEE700211E
:102B88002046BDE8F041FFF7B9BA1021F8E7202147
:102B9800F6E70321F4E70121F2E70921F0E7BDE8B0
:102BA800F08100BFC83600086802002044360008DB
:102BB80068360008D8320008C3B2742B17D8154AF3
:102BC80000F4E06052F823301843431C0ED0C0F3E1
:102BD800031300F00F000A2B96BF0F4A002252F889
:102BE80023200E4B53F8203091B19361704700F0C9
:102BF800C002C02AFAD1D72BF8D800F03F02084B00
:102C080000F4E06053F82220024B53F82230DBE74F
:102C18001B04EAE7C83600080800002088320008CC
:102C28006836000838B5044648B1FFF71BF9054671
:102C380000F008F8FFF716F9431BA342F8D338BD94
:102C4800FFF774B970470000024B0146186800F09E
:102C58002DB800BF60000020024B0146186800F044
:102C6800EFB800BF6000002070B50F4E0C46316809
:102C7800054611B900F0AEF830602146284600F04C
:102C8800A9F8431C03D14FF0FF34204670BDC41C83
:102C980024F00304A042F8D0211A284600F09AF83C
:102CA8000130F2D1EFE700BF940200202DE9F8438C
:102CB800CD1C25F0030508350C2D38BF0C25002D3B
:102CC800064601DBA94204D90C2333600020BDE885
:102CD800F883DFF8D48000F069F8D8F800301C4693
:102CE80044BB29463046FFF7BFFF431C044658D172
:102CF800D8F800402746002F43D1002C4BD023683A
:102D08003946304604EB030900F064F8814542D1A6
:102D180021686D1A29463046FFF7A6FF01303AD0E0
:102D280023682B442360D8F800305A6862BBC8F87F
:102D380000700FE02268521B20D40B2A17D96119A2
:102D4800A342256018BF5960636808BFC8F800101F
:102D580062514B60304600F02FF804F10B00231D40
:102D680020F00700C21A1CBF1B1AA350AFE7626805
:102D7800A3420CBFC8F800205A60EBE723466468FA
:102D8800AEE73C467F68B6E71A465B68A342FBD1CC
:102D980000235360DEE70C233360304600F00CF864
:102DA80094E70560D6E700BF98020020014800F0CC
:102DB80045B800BFD8030020014800F040B800BF64
:102DC800D803002002440346934200D1704703F819
:102DD800011BF9E738B5064D0023044608462B6069
:102DE800FFF77AFD431C02D12B6803B1236038BD7D
:102DF800D403002070B50D4B0D4D5B1B9C100026B5
:102E0800A64209D100F030FA0A4D0B4B5B1B9C100F
:102E18000026A64205D170BD55F8043B98470136F7
:102E2800EEE755F8043B98470136F2E7A438000866
:102E3800A4380008A4380008B03800087047704764
:102E480038B50546002941D051F8043C0C1F002B29
:102E5800B8BFE418FFF7AAFF1D4A136833B96360C7
:102E680014602846BDE83840FFF7A6BFA34208D93A
:102E7800206821188B4201BF19685B680918216016
:102E8800EDE71A465B680BB1A342FAD911685018EE
:102E9800A0420BD120680144501883421160E0D150
:102EA80018685B68536008441060DAE702D90C239D
:102EB8002B60D6E7206821188B4204BF19685B682D
:102EC800636004BF091821605460CAE738BD00BFB9
:102ED800980200202DE9F047089D0F4604468C46CD
:102EE800002B48D18A42164661D9B2FA82F34BB117
:102EF800C3F1200201FA03FC20FA02F29E4042EAE2
:102F08000C0C9C404FEA164EB7B2BCFBFEF1220CEB
:102F18000EFB11CC42EA0C4201FB07F0904209D9A2
:102F2800B21801F1FF3C80F0EE80904240F2EB8055
:102F380002393244121AA4B2B2FBFEF00EFB102280
:102F480044EA024400FB07F7A74209D9341900F103
:102F5800FF3280F0DA80A74240F2D780344402384A
:102F680040EA0140E41B00211DB1DC400023C5E913
:102F78000043BDE8F0878B4206D90DB1C5E90001D1
:102F880000210846BDE8F087B3FA83F1002948D14B
:102F9800BB4202D3824200F20781841A67EB030224
:102FA80001209446002DE4D0C5E9004CE1E7002A51
:102FB80000F09280B2FA82F3002B40F0A8808A1ABF
:102FC8004FEA164E1FFA86FC0121200CB2FBFEF7D1
:102FD8000EFB172240EA02420CFB07F0904207D989
:102FE800B21807F1FF3802D2904200F2E280474659
:102FF800121AA4B2B2FBFEF00EFB102244EA0244FD
:103008000CFB00FCA44507D9341900F1FF3202D2A9
:10301800A44500F2CB801046A4EB0C0440EA07401C
:10302800A2E7C1F120068B4022FA06FC4CEA030C09
:1030380007FA01F420FA06F3F7404FEA1C49234344
:1030480000FA01F81FFA8CFEB7FBF9F01C0C09FB1B
:10305800107744EA074400FB0EF7A74202FA01F290
:103068000AD91CEB040400F1FF3A80F09B80A742C8
:1030780040F2988002386444E41B9FB2B4FBF9F331
:1030880009FB134447EA044403FB0EFEA64509D98D
:103098001CEB040403F1FF3780F08280A6457FD93A
:1030A800023B644443EA0040A4EB0E04A0FB02E7A1
:1030B800BC427346B94663D360D05DB1B8EB030236
:1030C80064EB090404FA06F622FA01F31E43CC4025
:1030D800C5E9006400214CE76208480842EAC1716A
:1030E8000B0C43EA00438AB242EA0342B3FBF6F10F
:1030F800E407B4463746B6461F23B0FBF6F0D21BAA
:1031080041EA004161E7614614E7104628E7C3F148
:10311800200120FA01F29E4027FA01F19F403A432C
:103128004FEA164E1FFA86FCB1FBFEF70EFB17108E
:10313800110C41EA004107FB0CF8884504FA03F436
:103148003AD9711807F1FF3001D288451FD8A1EB91
:103158000801B1FBFEF808FB0CF70EFB181192B240
:1031680042EA0142BA422FD2B21808F1FF31C6D260
:10317800BA42C4D2A8F102013244C0E7F0459CD259
:10318800BEEB020367EB0C070138B94695E7A6EBDF
:1031980008084144B81EB1FBFEF808FB0CF7DCE751
:1031A8003B467FE7504667E70846FBE6344402386B
:1031B80032E7023F32441BE7A1EB08013846B1FB76
:1031C800FEF808FB0CF7C8E7414698E708B500F099
:1031D80000F808B5062000F02BF80120FFF79AFB4D
:1031E8001F2938B505460C4604D9162303604FF04D
:1031F800FF3038BDC26B12B152F821304BB92846A6
:1032080000F030F8224601462846BDE8384000F074
:1032180017B8012B0AD0591C03D1162303600120CB
:10322800E7E7002142F82410204698470020E0E70D
:10323800024B01461868FFF7D3BF00BF60000020AB
:1032480038B5074D00230446084611462B60FFF7A2
:1032580063FB431C02D12B6803B1236038BD00BF58
:10326800D4030020FFF760BBF8B500BFF8BC08BC6A
:103278009E467047F8B500BFF8BC08BC9E4670472C
:103288000100000002000000040000000800000027
:103298001000000020000000400000008000000036
:1032A8000001000000020000000400000008000007
:1032B8000010000000200000004000000080000016
:1032C80000000000000000000102030406070809CE
:1032D8000000000000000040128100000001000012
:1032E800000C0040128200000100000000000040B5
:1032F8001201010001010000000C0040120201004F
:1033080002000000000000401281010002010000DC
:10331800000C00401282010002020000004001403F
:1033280012830000030000000000004012010200A8
:1033380003010000000C004012020200030200001A
:103348000040014012030100050000000000004099
:1033580012810000050100000004014012831000E2
:103368000600000000040040128200000601000070
:10337800001C004012890000070000000000014006
:103388001281100007010000000400401202010031
:103398000702000000040140128310000703000028
:1033A80000200040128900000800000000000140D1
:1033B8001281000009000000000001401201010014
:1033C8000A00000000000140128101000B0000000B
:1033D80000000140120102000F0000000000004040
:1033E80012810000100000000000014012011100CD
:1033F80010010000000400401282010010020000C9
:1034080000040140120311001100000000000140F7
:103418001281110011010000000400401202020094
:103428001102000000040140128311001300000083
:1034380000000040120101001400000000040040D8
:103448001282000015000000000400401202010072
:10345800160000000008004012820000170000005B
:103468000008004012020100180000000008004097
:10347800128201001801000000440140128300007C
:1034880019000000000800401202020019010000A3
:1034980000480140128300001A00000000000040AC
:1034A800128101001B000000000000401201020010
:1034B8001D00000000000140128110001E000000E5
:1034C80000000140120111001E010000000401402B
:1034D800120311001E0200000018004012890000AB
:1034E8001F00000000000140128111001F010000B0
:1034F80000040140128311001F0200000018004060
:103508001209010026000000000400401282000099
:10351800260100000004014012830000270000007B
:1035280000040040120201002701000000040140CD
:10353800120301002800000000040040128201006C
:103548002801000000040140128301002900000046
:10355800000400401202020029010000000401409A
:10356800120302003C000000000800401282000024
:103578003D00000000080040120201003E0000006B
:1035880000080040128201003F00000000080040CF
:1035980012020200450000000040014012830000B2
:1035A80046000000004001401203010048000000EE
:1035B8000000014012811000490000000000014095
:1035C800128100004A0000000000014012011100B1
:1035D8004B00000000000140120101004C000000F7
:1035E80000000140128111004D0000000000014060
:1035F800128101004E00000000000140120102008B
:1036080056000000004401401283000057000000EB
:10361800004801401283000058000000001C0040D0
:1036280012890000590000000020004012890000A3
:10363800FFFFFFFF00000000000000000400000082
:103648000074004003800000050000000074004082
:1036580003000100FFFFFFFF000000000000000062
:103668004E0000004F000000500000005100000014
:1036780052000000530000005400000055000000F4
:1036880056000000570000000B0000000C0000006E
:103698000D00000018000000200000003D000000A0
:1036A8003E0000003F0000005800000059000000E4
:1036B80061000000620000006300000021000000BB
:1036C800690000006E0000005F0000004D0000006F
:1036D8005E0000004B000000490000005D00000093
:1036E8005C0000003F0000003E00000007000000F2
:1036F8000600000005000000190000001800000086
:10370800260000001F0000001D0000001C00000033
:103718000F00000027000000150000001300000043
:103728000400000014000000160000001200000051
:103738003D0000003C0000003B000000420000008B
:103748000000000010000000400000001B00000006
:103758001A0000004F0000004E0000004C0000005E
:103768004A00000047000000480000002800000050
:10377800290000002A0000002B0000002C00000097
:103788003200000062000000630000003700000003
:10379800360000003500000034000000330000004F
:1037A8004200000044000000450000004600000000
:1037B80043000000580000005700000059000000B6
:1037C80061000000600000003100000030000000CF
:1037D80050000000510000005200000007000000E7
:1037E800FFFFFFFF170000001E0000002D00000073
:1037F800390000003800000003000000200000002D
:103808002300000053000000550000005A0000008B
:1038180011000000220000005400000056000000C3
:10382800010000000200000008000000090000007C
:103838000A0000000B0000000C0000000D00000052
:103848000E000000210000002400000025000000F8
:103858002E0000002F0000003A0000004100000088
:103868005B000000640000006500000066000000C6
:1038780067000000680000006A0000006B0000009C
:103888006C0000006D0000006F0000007000000078
:0438980071000000BB
:08389C0040F6FF7F010000006F
:0C38A400F129000851020008F11F000883
:0838B0002D020008C9200008E8
:1038B8000100000010000000000002400004024067
:1038C80000080240000C02400010024000140240B0
:1038D80000180240001C0240002002400024024060
:1038E80000280240003002400000000000000000F4
:1038F80000000000000000000000000000000000C0
:1039080000000000010000000024F400E003002093
:1039180064000020000000009C0200200403002036
:103928006C03002000000000000000000000000000
:10393800000000000000000000000000000000007F
:10394800000000000000000000000000000000006F
:10395800000000000000000000000000000000005F
:0400000508002A992C
:00000001FF
